:100000007DC1A1C161C89FC19EC114C89CC19BC1D3
:10001000D3C899C198C197C1D0C895C194C10000F7
:10002000000000000000002F000000000700070093
:1000300000147F147F1400242A7F2A1200626408AF
:10004000132300364955225000000503000000002C
:100050001C224100000041221C000014083E08142C
:100060000008083E0808000000A06000000808081A
:100070000808000060600000002010080402003E34
:100080005149453E0000427F4000004261514946CF
:10009000002141454B31001814127F1000274545BF
:1000A0004539003C4A4949300001710905030036D1
:1000B0004949493600064949291E000036360000E4
:1000C00000005636000000081422410000141414E9
:1000D00014140000412214080002015109060032E4
:1000E0004959513E007C1211127C007F4949493622
:1000F000003E41414122007F4141221C007F49498D
:100100004941007F09090901003E4149497A007FC0
:100110000808087F0000417F4100002040413F0166
:10012000007F08142241007F40404040007F020CC5
:10013000027F007F0408107F003E4141413E007F66
:1001400009090906003E4151215E007F091929462F
:100150000046494949310001017F0101003F40400B
:10016000403F001F2040201F003F4038403F0063B9
:1001700014081463000708700807006151494543DB
:1001800000007F41410000020408102000004141AE
:100190007F00000402010204004040404040000093
:1001A00001020400002054545478007F484444382D
:1001B00000384444442000384444487F00385454B4
:1001C000541800087E0901020018A4A4A47C007F32
:1001D000080404780000447D4000004080847D00D5
:1001E000007F102844000000417F4000007C04187C
:1001F0000478007C0804047800384444443800FC47
:10020000242424180018242418FC007C0804040862
:1002100000485454542000043F444020003C4040D7
:10022000207C001C2040201C003C4030403C00440E
:1002300028102844001CA0A0A07C004464544C4416
:100240000008364141000000007F000000004141ED
:100250003608000804081008506C65617365207248
:100260006563686172676520210021212120426158
:10027000747465727920656D707479202121210074
:100280000000000036000000000037000000000001
:1002900038000202020202020102040810200102D8
:1002A00000000400C8A1A81FDA028D1473746172E3
:1002B0007420616761696E202100436865636B206B
:1002C00053442D4361726420616E6400212121201A
:1002D000202020204552524F522020202020212132
:1002E00021002D2D2054696E79204D503320506C03
:1002F00061796572202D2D00180BC00B11241FBED3
:10030000CFE5D2E0DEBFCDBF21E0A4EDB0E001C07B
:100310001D92AE37B207E1F710E0A0E6B0E0EEECD8
:10032000F8E102C005900D92A43DB107D9F711E0A4
:10033000CDE7D1E003C02197FE01B7DACC37D10772
:10034000D1F78BD7B8CA5CCE80B58E7F80BD86B121
:10035000806986B917B885B7877E886085BF85B7FD
:10036000806285BF889585B78F7D85BF3699FECF22
:1003700024B135B1379890B5916090BDC901089509
:10038000CF92DF92EF92FF920F931F93CF93DF9361
:100390006C01EB017B01E40EF51E10E000E0CE15D0
:1003A000DF0561F06991D601ED91FC910190F0813A
:1003B000E02DC6010995080F191FF1CFC801DF9183
:1003C000CF911F910F91FF90EF90DF90CF90089504
:1003D000CF93DF9387FF07C08F7769F1813069F191
:1003E000823069F183E090E0FC01E856FD4F2491F2
:1003F0008E569D4FFC0184918823D1F090E0880FA8
:10040000991FFC01EA57FD4FA591B491FC01E457F7
:10041000FD4FC591D491611114C09FB7F8948C9190
:10042000E22FE0958E238C932881E223E8839FBFFF
:10043000DF91CF91089585E0D6CF82E0D4CF84E0DC
:10044000D2CF8FB7F894EC91E22BEC938FBFF0CF23
:100450003FB7F89480911D0190911E01A0911F015A
:10046000B091200122B708B601FE05C02F3F19F058
:100470000196A11DB11D3FBFBA2FA92F982F882724
:10048000BC01CD01620F711D811D911D43E0660FFE
:10049000771F881F991F4A95D1F70895CF92DF9251
:1004A000EF92FF92CF93DF936B017C01D1DFEB01E1
:1004B000C114D104E104F10441F412C081E0C81A6E
:1004C000D108E108F108C851DC4FC2DF6C1B7D0B7D
:1004D000683E734068F3C114D104E104F10471F77C
:1004E000DF91CF91FF90EF90DF90CF9008958091B2
:1004F000520190915301DC01ED91FC910480F58152
:10050000E02D0995892B09F4D3C060E070E0CB01A0
:10051000C5DF209170018091520190915301DC015F
:10052000ED91FC910680F781E02D21110BC009951A
:1005300080935C018E37D9F6809170018F5F809334
:100540007001D5CF099590917001E92FF0E0EE5A36
:10055000FE4F82879230A9F09930C9F0913099F41A
:100560008F3F89F01092700181E0809372011092A8
:10057000750110927401809376011092770180E0EA
:100580000895863079F79F5F90937001B0CF8F3ECA
:1005900049F720915E0180915D01280F3327331FB9
:1005A000E0915F01C9018E0F911D20916001280F1C
:1005B000392F311D4091610150E0240F351F80918A
:1005C000620190E06091630170E0762F6627F09100
:1005D00064016F0F711D280F391F31952195310965
:1005E0006217730709F0BECF10927001E13419F45D
:1005F000109277012EC0E0937301542F4427840F8B
:10060000951F9093750180937401EA53E63108F0C9
:1006100045C0F0E0E35FFC4F09942CC033C03CC000
:1006200012C03AC019C036C039C036C035C034C057
:1006300033C032C031C030C02FC030C02DC02CC03C
:100640002BC02AC029C085E08093720181E080938D
:10065000760180917601089580FF02C089E0F4CF91
:1006600081FF02C084E0F0CF83709927892B89F342
:100670008AE0EACF80FF02C087E0E6CF81FFE9CFC2
:1006800082E0E2CF80FF02C088E0DECF81FFE1CFD1
:1006900083E0DACF86E0D8CF8BE0D6CF81E08093BD
:1006A0007201109275011092740180937601A0CFAF
:1006B00080917701882369F22FB7F89480914E01D9
:1006C00090914F01A0915001B09151012FBF4091E5
:1006D0005401509155016091560170915701841B4E
:1006E000950BA60BB70B40915801509159016091A1
:1006F0005A0170915B0184179507A607B70708F4A4
:10070000A8CF109270011092720110927501109290
:10071000740181E030CF80936901272F30E070931E
:100720006B0160936C014091680190916701490FE2
:100730005527551F840F952F911D40916A01840FF5
:10074000911D820F931F680F792F711D719561950F
:10075000710970936D0160936E01442351F0809193
:100760007701882331F060E070E0CB0197DEBFDED7
:10077000F6CF8091520190915301DC01ED91FC91F3
:100780000280F381E02D4AE050E066E671E00995D1
:100790002FB7F89480914E0190914F01A091500194
:1007A000B09151012FBF8093540190935501A093B4
:1007B0005601B093570180916A0191E0811101C007
:1007C00090E090937701811105C06AE070E080E0CD
:1007D00090E064CE08958F929F92AF92BF92CF9295
:1007E000DF92EF92FF926B017C018FB7F8948090BB
:1007F0004E0190904F01A0905001B09051018FBFD9
:10080000C114D104E104F10441F4C0905801D09026
:100810005901E0905A01F0905B0169DE811119C025
:100820009FB7F89440914E0150914F016091500153
:10083000709151019FBF481959096A097B09C41673
:10084000D506E606F70628F060E070E0CB0126DE6C
:10085000E4CFFF90EF90DF90CF90BF90AF909F904C
:100860008F900895E0911801F09119010994E09199
:100870001601F09117010994E0911A01F0911B0102
:10088000099580E4F4CFE0911A01F0911B010995DC
:1008900080E0EDCFCF93C091640080E2C827C09381
:1008A0006400F1DF8C2FE3DFDDDF8091630094E0F3
:1008B000892780936300CF9108951F93CF93DF938F
:1008C000C82F162FD62FD77080916300D82BDBDF6F
:1008D0008D2FCDDF8C2F82958F708061C8DF8C2F9C
:1008E0008F70C5DFBFDFC093790110937801DF916E
:1008F000CF911F9108950F931F93CF93DF93C0E083
:1009000010E86C2F80E0D9DF80917901012F081B5E
:1009100081F010937901B0DFD0E080E0A8DF811191
:1009200004C0A0DFA9DF80E0A2DFDF5F0D13F5CFF9
:1009300099DFCF5FC43029F760E080E0DF91CF918D
:100940001F910F91BACF80917801860F24E030E09B
:10095000261B31098217130609F034F480937801BD
:100960006091780180E0A9CF84E0861BF7CFAF9239
:10097000BF92CF92DF92EF92FF920F931F93CF938C
:10098000DF93E0912301F0912401309741F06D3025
:1009900031F0D62FC3816A3079F46C2FD4DF81E037
:1009A00090E0DF91CF911F910F91FF90EF90DF903A
:1009B000CF90BF90AF900895A28040917901EA2C2A
:1009C000F12C20E830E02E193F094217130619F0E8
:1009D00014F06C2FB8DFE0912301F0912401248101
:1009E0008C2F90E0B70107D7BC014D2F421B550B50
:1009F000CA0101D78C01BC2E3FDFC801282F201B64
:100A00002A15C0F46C015FEFC51AD50AE0912301E5
:100A1000F09124010190F081E02DE80FF91FD491AD
:100A20008D2F25DF811104C01DDF26DF8D2F1FDFF5
:100A3000C601E4CF0E0D1F1D15DF80917901C13075
:100A400039F48A0D80937901BA94B110D5CFA7CF2C
:100A5000609178016F5F91E09B1510F42EDFF4CF69
:100A60006C1B8A0DFBCFCF93C82F0DDF81E8FFDE13
:100A70008C2FFDDECF91F6CE2091270130912801F9
:100A80002817390781F49091250180912601981744
:100A900051F0E0912501F0E0EA52FF4F8081082EED
:100AA000000C990B08958FEF9FEF08952091270177
:100AB000309128012817390739F48FB7F89410922C
:100AC0002601109225018FBF0895EF92FF920F9398
:100AD0001F93CF93DF93DC015C96ED90FC905D97C4
:100AE000E114F10479F481E090E013969C938E93E5
:100AF000129790E080E0DF91CF911F910F91FF90CE
:100B0000EF9008955196ED91FC91529750968C91EB
:100B10005097982F90950FB75E962C915E97122F55
:100B2000127021FD6095F8942081112319F1282B72
:100B30002083E7012197F1F728E0462F50E030812C
:100B400060FF1AC0382B3083E7012197F1F7BA0113
:100B500075956795215089F7112381F0808189234C
:100B600080830FBF5C968D919C910197F1F781E096
:100B700090E0C1CF2923DCCF3923E5CF9081892BA9
:100B8000EFCF20912701309128012817390769F408
:100B9000809126012091250190E0805C9F4F821B6F
:100BA000910960E470E04CD6089590E080E00895EB
:100BB000209127013091280128173907B9F4909125
:100BC000250180912601981789F0E0912501F0E038
:100BD000EA52FF4F80812091250130E02F5F3F4F87
:100BE0002F7333272093250190E008958FEF9FEF17
:100BF000089585B7877E806185BF8AB780628ABF86
:100C000080B58F6080BDF89414BE88E981BD82E410
:100C100081BDA89585B7806285BF7894889585B792
:100C20008F7D85BF80B5807F80BD80B5816080BDB0
:100C3000089580B58E7F80BD86B1806986B98CE0CD
:100C400087B962E070E080E090E028DC85B7877EBD
:100C5000886085BF85B7806285BF889585B78F7DA1
:100C600085BF3699FECF24B135B150E040E03798CA
:100C700080B5816080BD64EB7BE281E190E0F3D5DB
:100C8000253080E138074105510520F024E030E1AE
:100C900040E050E020388CE038074105510520F451
:100CA00020E83CE040E050E0CA01B90160587C40D7
:100CB0008109910929E030E040E050E0D4D5822F4D
:100CC0000895CF93DF93EC01FE016491662329F030
:100CD0008AE791E04CDE2196F7CFDF91CF9108951E
:100CE0008EB98BE295E09A95F1F700008DB9B29B31
:100CF000FECF92E09A95F1F700C08DB9769BF2CFC6
:100D000085E08A95F1F700008FB19FEF9FB9B89AFF
:100D10000895C2988FB980EFE3DFB8988EEFE0DFD7
:100D2000809581700895C098C29AB29BFECF82E0F0
:100D30008A95F1F700C0C09A85E08A95F1F7000026
:100D400080E00895C29AB29BFECF82E08A95F1F7C7
:100D500000C0C09882E08A95F1F700C0C298C09A9E
:100D6000779B0BC0C29888E78FB980EFB9DFB8983E
:100D70008EEFB6DF80958170089580E00895C09A67
:100D8000C29ABA9AB89A8FEF8FB98AE28DB980EF7A
:100D90008EB9D8DF811106C06AE070E080E090E093
:100DA0007DDBF7CFC0CF8F929F92AF92BF92EF9231
:100DB000FF920F931F93CF93DF93CDB7DEB7A19729
:100DC0000FB6F894DEBF0FBECDBF162F042F19A2A9
:100DD000423008F40AE07E0121E2E20EF11C802E8E
:100DE000912CB12CA12C612FA50194013CD5802F11
:100DF000622FF8D4181B1A303CF5105DF7011293DE
:100E00007F01122F732FCA01232B242B252B59F777
:100E100001900020E9F73197AF014E195F09B70142
:100E20008AE791E0ADDAA1960FB6F894DEBF0FBE67
:100E3000CDBFDF91CF911F910F91FF90EF90BF90A9
:100E4000AF909F908F900895195CD8CFFC010190CE
:100E50000020E9F73197AF01481B590BBC018AE725
:100E600091E08ECACF93C82F8A3018F48CEA90E0B4
:100E7000EDDF6C2F70E090E080E04AE0CF9193CFFF
:100E80003ADD60E080E019DD82EE92E01ADF61E099
:100E900080E013DD8DE890E0D9DF80916000E2DF33
:100EA0008BE990E0D3DF80912901DCDF62E080E014
:100EB00004DD80EA90E0CADF80916200D3DF8BE935
:100EC00090E0C4DF8091D400CDDF63E080E0F5DC0A
:100ED00080914B01882311F18EEA90E0B7DF63E047
:100EE0008EE4EBDC81EC90E0B1DF8091D5008436BC
:100EF00018F48CEA90E0AADF8091D5008A3018F4CB
:100F00008CEA90E0A3DF6091D50070E090E080E093
:100F10004AE049DF86EC90E099DFBCCC88EB90E0BA
:100F200095DF809161009EDFDACF83DE8093D5006C
:100F300081112AC082E397DDDEDC60E080E0BDDC69
:100F40008AE692E0BEDE62E08FE0B7DC88E592E000
:100F5000B8DEA0DC80914B01811104C070E060E03C
:100F60008EE0D9DB66DE8A3010F443DEFBCF8FE7FC
:100F70007ADD5FDE8093D50080914B01811104C042
:100F800070E060E08DE0C7DB7BDF88E592E0909366
:100F90004A01809349010895CF9390916000809118
:100FA0002901891728F481E0809360008093620012
:100FB0006091600070E08EE4AEDB60E070E0CB0139
:100FC0000ADC81112CC08FEF8093D40090916200D5
:100FD000891718F481E0809362006091600080912D
:100FE0006200762F682F8FE096DB10924B0148DF6E
:100FF000C091620081E090E0DFD3C81721F06C2F30
:1010000081E090E0E1D3C091600082E090E0D4D331
:10101000C81771F06C2F82E090E0CF91D5C3109289
:101020007601809172018B3071F680917401CCCF82
:10103000CF9108951F920F920FB60F9211242F9304
:101040003F938F939F93AF93BF9380914E01909165
:101050004F01A0915001B091510130911C0126E047
:10106000230F2D3768F129E8230F0396A11DB11D29
:1010700020931C0180934E0190934F01A093500147
:10108000B093510180911D0190911E01A0911F010B
:10109000B09120010196A11DB11D80931D01909377
:1010A0001E01A0931F01B0932001BF91AF919F91AA
:1010B0008F913F912F910F900FBE0F901F90189519
:1010C0000296A11DB11DD4CF1F920F920FB60F92A1
:1010D00011242F933F934F935F936F937F938F933D
:1010E0009F93AF93BF93EF93FF93E0912701F0910C
:1010F0002801309749F0A685B7858585968D91FFA3
:1011000014C09C918923A1F4FF91EF91BF91AF91FD
:101110009F918F917F916F915F914F913F912F910F
:101120000F900FBE0F901F9018959C91892361F727
:10113000A389B4899C918589809589238C9386891C
:1011400097890197F1F7608D718DA685B7855585D3
:1011500038E020E0CB010197F1F7822F90E09595E0
:101160008795282F4C91452309F02068315091F73D
:10117000868D81FD20958091260190E001968F73E8
:10118000992730912501381799F0A0912601B0E0F8
:10119000AA52BF4F2C9380932601828D938D019785
:1011A000F1F7A389B4898C919589892B8C93ACCF65
:1011B000868D8160868FF1CF18951F920F920FB6A2
:1011C0000F9211248F930FB6F894A89581B588617A
:1011D00081BD11BC0FBE8F910F900FBE0F901F905D
:1011E000189590E0FC01E256FD4F3491FC01E85661
:1011F000FD4F2491FC01EE56FD4FE491EE23B9F032
:10120000332329F03130A1F48AB58F778ABDF0E01D
:10121000EE0FFF1FE457FD4FA591B4918FB76111F9
:1012200018C0F894EC9120952E232C938FBF08952D
:10123000323019F48AB58F7DE9CF333021F480B78D
:101240008F7D80BFE4CF343011F78CB58F7D8CBD9E
:10125000DECFF894EC912E2BE8CF83E08ABD83BFDC
:10126000789489B7826089BF80E48CBD8FEF8DBD93
:1012700087EC80BF86B18877866886B9379A14BEB6
:1012800088E981BD82E481BDA89586E086B9339A5C
:10129000789480B5816080BD60E083E899D860E093
:1012A00080E896D8E0912101F09122010995EBDACE
:1012B000C4EAD2E04CEAE42E42E0F42EFE0114919E
:1012C000812FD5DA811104C0CDDADDDA812FCFDAB2
:1012D0002196EC16FD0691F7C5DA87E890E0909329
:1012E0002401809323018FE7BEDB05DBCCDA8FEA94
:1012F000BEDAB8DA8091630094E0892780936300B6
:10130000FADA60E080E0D9DA82EE92E0DADC61E0DD
:1013100080E0D3DA88EC90E099DDBCDA10924501E8
:101320001092440110924301109242011092410127
:10133000109240018DEC90E090934701809346011C
:1013400030913601363020F545E550E050934101AB
:10135000409340014BEC50E05093430140934201D5
:1013600040E950E050934501409344012BB720627F
:101370002BBF45E350E050933E0140933D0121E0F7
:1013800001C0220F3A95EAF720933F010197F1F748
:101390008091440190914501892B49F1E091270109
:1013A000F091280121E0EA32F20709F1309739F093
:1013B000A389B4899C918589809589238C93809198
:1013C00048018E7F809348011092260110922501DA
:1013D0008AE291E09093280180932701E0913D01FA
:1013E000F0913E01808190913F01892B808364EFD1
:1013F00071E080E090E052D88AE291E0909353014E
:101400008093520181E080936A0170E060E08CE09B
:1014100082D960ED77E080E090E0DDD968EC70E0A3
:1014200080E090E03BD81092760180917201843088
:10143000F1F08930E1F05FDA60E080E03EDA8CECD8
:1014400092E03FDC62E080E038DA8AEB92E039DC5F
:1014500063E080E032DA8CEA92E033DC1BDA82E38C
:1014600002DB70E060E08AE056D9C3DBFECF5DDDD1
:1014700090E080E0A1D1873309F0C9C081E090E01D
:101480009BD18093620082E090E096D180936000CF
:1014900084EF91E0A0E0B0E080935801909359016F
:1014A000A0935A01B0935B016091610070E086E007
:1014B00032D970E060E08FE42ED960E070E0CB01BB
:1014C0008AD98111A9C08FEF8093290165DD33E0AE
:1014D000F32E02E210E0EE24E39409D8882361F0B1
:1014E0001092760180917201853031F48091620012
:1014F0008F5F8093620050DD80B58E7F80BD86B1A6
:10150000806986B9F7B885B7877E886085BF28E08F
:1015100090E080E035B7306235BF889535B73F7DC4
:1015200035BF3699FECF44B155B1840F951F215078
:1015300089F7379820B5216020BD23E096958795DF
:101540002A95E1F720914C0130914D01A9014850B5
:1015500051098417950728F0285F3F4F281739074E
:1015600020F490934D0180934C0180914C01909117
:101570004D01B80151D180916100861731F060931F
:101580006100772786E0C7D87BDCDED6EC01C83E59
:1015900083E0D80770F5CE0183509340879740F4DD
:1015A000809160008F5F80936000E0926200F4DCC5
:1015B000CE0185519240879730F4809162008F5F11
:1015C00080936200E9DCC55BD240A79770F48091FC
:1015D0004B0191E0811190E090934B0170E060E04D
:1015E000811124C08EE097D84BDCAED6883E934064
:1015F000E0F38091490190914A01019790934A014B
:1016000080934901892B09F490DCF3DA66CF67E314
:1016100090E080E0D9D03CCF1092760180917201A9
:101620008B3009F050CF809174014ECF8DE0DBCF2D
:1016300010927D0110927C0183E790E090937B01F2
:1016400080937A018FEB96E09093220180932101A1
:1016500082EA96E090931B0180931A0189E896E054
:10166000909317018093160183E996E090931901F6
:101670008093180110922D0110922C0188EE93E0B6
:10168000A0E0B0E080932E0190932F01A093300151
:10169000B09331018BE790E090932B0180932A0166
:1016A00010924101109240011092430110924201A8
:1016B0001092450110924401109247011092460188
:1016C000609148016E7F6D7F6093480166956170FF
:1016D00081E0682786DD61E081E07AD6E9E9F2E021
:1016E000E491E0933A01E3E9F2E0E491F0E0EE0FF7
:1016F000FF1FE457FD4F8591949190933C01809397
:101700003B0160E084E064D68091480181FD03C024
:1017100061E084E066DD84E080933601ECE9F2E08C
:10172000E491E0933701E6E9F2E0E491F0E0EE0FB6
:10173000FF1FE058FD4F859194919093390180935C
:10174000380184EF91E0A0E0B0E0809358019093DD
:101750005901A0935A01B0935B018AE0E5E6F0E0FD
:10176000A6E6B1E001900D928A95E1F71092700122
:1017700082E08093710110927601109277010895B2
:101780008BE790E090932B0180932A0180912701B1
:10179000909128018A52914071F4E0913D01F091BD
:1017A0003E01908180913F01809589238083109232
:1017B0002801109227010895E199FECF9FBB8EBBAF
:1017C000E09A99278DB30895262FE199FECF1CBA90
:1017D0009FBB8EBB2DBB0FB6F894E29AE19A0FBE69
:1017E00001960895002480FD060E660F11F086957F
:1017F000D1F7802D08950024552704C0080E591FE5
:10180000880F991F009729F076956795B8F37105B1
:10181000B9F7802D952F0895AA1BBB1B51E107C076
:10182000AA1FBB1FA617B70710F0A61BB70B881F70
:10183000991F5A95A9F780959095BC01CD010895FF
:1018400097FB072E16F4009406D077FD08D0E4DF4E
:1018500007FC05D03EF4909581959F4F08957095B3
:1018600061957F4F0895A1E21A2EAA1BBB1BFD01B3
:101870000DC0AA1FBB1FEE1FFF1FA217B307E4076F
:10188000F50720F0A21BB30BE40BF50B661F771FC7
:10189000881F991F1A9469F76095709580959095A7
:1018A0009B01AC01BD01CF010895EE0FFF1F059014
:1018B000F491E02D099411E0CDE7D1E003C0FE01E1
:0E18C000F4DF2196CE37D107D1F7F894FFCF91
:1018CE00011401B0407EFF06000100000000EF0091
:1018DE00000000B704C001000000006505C001C192
:1018EE0005D8053C0556051E000601207E466F6C88
:1018FE006465723A20202020202000206F66200090
:10190E0046696C653A2020202020202020003C20B3
:10191E005061757365203E00566F6C756D653A208B
:10192E00004261743A0025007374617274696E67C7
:04193E002E2E2E001B
:00000001FF
