:1000000099C1BDC173C5BBC1BAC100C9B8C1B7C12F
:10001000E7C5B5C1B4C1B3C1E4C5B1C1B0C1F2C790
:10002000F9C702C8DEC700C8DEC7FCC704C8FCC7E2
:10003000FBC7FAC7F9C7F8C7F7C7F6C7F5C7FBC7C5
:10004000F3C7F2C7F1C7F0C7EFC700000000000018
:100050000000002F000000000700070000147F14BC
:100060007F1400242A7F2A120062640813230036BA
:100070004955225000000503000000001C224100E9
:10008000000041221C000014083E08140008083E2D
:100090000808000000A06000000808080808000028
:1000A00060600000002010080402003E5149453EF7
:1000B0000000427F40000042615149460021414515
:1000C0004B31001814127F10002745454539003C7C
:1000D0004A4949300001710905030036494949364A
:1000E00000064949291E0000363600000000563639
:1000F000000000081422410000141414141400001D
:100100004122140800020151090600324959513EAA
:10011000007C1211127C007F49494936003E414162
:100120004122007F4141221C007F49494941007F13
:1001300009090901003E4149497A007F0808087F02
:100140000000417F4100002040413F01007F081432
:100150002241007F40404040007F020C027F007F30
:100160000408107F003E4141413E007F0909090615
:10017000003E4151215E007F091929460046494948
:1001800049310001017F0101003F4040403F001F15
:100190002040201F003F4038403F00631408146394
:1001A00000070870080700615149454300007F417E
:1001B0004100000204081020000041417F000004BB
:1001C00002010204004040404040000001020400DF
:1001D000002054545478007F484444380038444444
:1001E000442000384444487F0038545454180008D0
:1001F0007E0901020018A4A4A47C007F08040478EE
:100200000000447D4000004080847D00007F102875
:1002100044000000417F4000007C04180478007C0A
:100220000804047800384444443800FC242424188A
:100230000018242418FC007C0804040800485454C6
:10024000542000043F444020003C4040207C001CDF
:100250002040201C003C4030403C004428102844F2
:10026000001CA0A0A07C004464544C44000836410B
:1002700041000000007F00000000414136080008F6
:1002800004081008506C65617365207265636861CD
:1002900072676520210021212120426174746572FA
:1002A0007920656D70747920212121000000000003
:1002B0003600C8A1A81FDA028D147374617274200D
:1002C000616761696E202100436865636B20534458
:1002D0002D4361726420616E640021212120202061
:1002E00020204552524F5220202020202121210041
:1002F0002D2D2054696E79204D503320506C61793A
:100300006572202D2D000000000037000000000065
:100310003800020202020202020202020102040882
:10032000102020041008010200000400000000005A
:100330005C0B070C11241FBECFE5D2E0DEBFCDBFA2
:1003400010E0A0E6B0E0E6E9F9E102C005900D9208
:10035000AA3DB107D9F721E0AAEDB0E001C01D9296
:10036000A939B207E1F711E0C9E9D1E003C021974B
:10037000FE01FBDAC839D107D1F792D700CB40CEC6
:10038000AF92BF92CF92DF92EF92FF920F931F93A3
:10039000CF93DF936C017B018B01040F151FEB01E1
:1003A0005E01AE18BF08C017D10759F06991D60198
:1003B000ED91FC910190F081E02DC6010995892B0A
:1003C00079F7C501DF91CF911F910F91FF90EF90C9
:1003D000DF90CF90BF90AF90089520913C01309175
:1003E0003D012817390771F490913A0180913B0142
:1003F000981741F0E0913A01F0E0E251FF4F80811F
:1004000090E008958FEF9FEF089508951F93CF9385
:10041000DF93DC015C968D919C915D97009739F498
:1004200021E030E013963C932E9312973BC05196F7
:10043000ED91FC91529750962C915097322F309518
:100440001FB75E964C915E97742F727041FD609558
:10045000F8944081772311F0422B01C0432340835D
:10046000EC012197F1F748E0508160FF02C0522B68
:1004700001C053235083EC012197F1F76695415059
:1004800099F78081772319F08323808302C0282B7A
:1004900020831FBF5C968D919C915D970197F1F72A
:1004A00081E090E0DF91CF911F91089520913C0170
:1004B00030913D012817390769F480913B01209163
:1004C0003A0190E0805C9F4F821B910960E470E0EC
:1004D00017DA089580E090E0089520913C01309172
:1004E0003D0128173907B9F490913A0180913B01F9
:1004F000981789F0E0913A01F0E0E251FF4F8081D6
:1005000020913A0130E02F5F3F4F2F733327209324
:100510003A0190E008958FEF9FEF0895089580E0ED
:1005200090E0089585B7877E806185BF8AB7806235
:100530008ABF80B58F6080BDF89414BE88E981BD04
:1005400082E481BDA89585B7806285BF789488953F
:1005500085B78F7D85BF80B5807F80BD80B5816088
:1005600080BD0895E091EC00E13148F4EF5FE09345
:10057000EC00F0E0E652FF4F808381E0089580E0D8
:1005800008951092EC00880F8093DA000895C09AC5
:10059000C29ABA9AB89A8FEF8FB98AE28DB980EF72
:1005A0008EB9089580B58E7F80BD86B1806986B989
:1005B0008CE087B962E070E080E090E04ED485B7CF
:1005C000877E886085BF85B7806285BF889585B73F
:1005D0008F7D85BF3699FECF24B135B140E050E024
:1005E000379880B5816080BD64EB7BE281E190E06B
:1005F0009AD920388CE038074105510568F0DA01B6
:10060000C901853020E19207A105B10548F084E0D9
:1006100090E1A0E0B0E004C080E89CE0A0E0B0E0A1
:10062000BC01CD0160587C408109910929E030E08E
:1006300040E050E078D9822F08959DD9C29AC29B9C
:10064000FECF8DE08A95F1F70000C0988AE08A9588
:10065000F1F700C0C298C09A779905C083E08093F3
:10066000350180E0089581E008958EB98BE29DE028
:100670009A95F1F700008DB9B29BFECF9AE09A955A
:10068000F1F700C08DB9769BF2CF8DE08A95F1F736
:1006900000008FB19FEF9FB9B89A0895CF92DF9273
:1006A000EF92FF920F931F93CF93DF930091EC0093
:1006B00081E0809335018091DA0080FD03C083E002
:1006C00080933501BBDF882309F452C00F5F102FE0
:1006D000CAEDD0E0DD24DA94CC24C39480913501B6
:1006E00083709E012F5F3F4F7901882369F1C29883
:1006F00088818FB980EFB9DFB8988EEFB6DF90911F
:10070000350180FF0BC0892F817090FF05C081E00B
:100710008093350180E02CC092E00FC0892F857056
:10072000843071F48091DA0081608093DA00C092A5
:10073000350184DF811115C09AE09093350118C00E
:100740009E7F909335010BC0B89880EF8EDF888331
:10075000113011F4DFB801C01FB88EEF86DFE7015A
:1007600003C0102FCAEDD0E0115009F0B7CF81E0DF
:100770001092EC00882391F0C098C29AB29BFECFF1
:100780003AE03A95F1F700C0C09A8DE08A95F1F70A
:100790000000759903C084E080933501DF91CF910B
:1007A0001F910F91FF90EF90DF90CF900895CF931E
:1007B000C82F8A3018F482EB90E09DD26C2F70E045
:1007C00080E090E04AE0CF9157C2E0913001F09193
:1007D00031010994E0912E01F0912F010994E091EB
:1007E0003201F091330180913401099580E4F2CF18
:1007F000E0913201F091330180913401099580E05C
:10080000E9CF1F93CF93DF93C62F142FD42FD77028
:1008100080916300D82BECDF8D2FDCDF8C2F82954D
:100820008F708061D7DF8C2F8F70D4DFCEDFC093C5
:100830008B0110936401DF91CF911F9108958F92E6
:100840009F92AF92BF92CF92DF92EF92FF920F935F
:100850001F93CF93DF93E0913801F09139013097E6
:1008600009F468C06D3009F465C0162FEC01A3804F
:100870006A3019F46A2D9FD25DC0828020918B016D
:1008800030E0E82CF12C80E890E08E199F09821767
:1008900093071CF46A2DCE018ED2212F30E0E09117
:1008A0003801F091390144818A2D90E0B70103D8D5
:1008B000BC01C901841B9109FED78C019A2C8FDFE2
:1008C000F8018E2F801B8815B8F46F018FEFC81ABE
:1008D000D80AA0913801B09139018D919C91E80F0F
:1008E000F91FB4908B2D76DF811104C06EDF77DFA6
:1008F0008B2D70DFF601E5CF0E0D1F1D66DF81E049
:10090000A81206C080918B01880D80938B010FC0C7
:100910004091640181E04F5F891518F460918B016B
:1009200004C04A1960918B01680DCE016ADF9A9468
:100930009110C5CF81E090E0DF91CF911F910F9191
:10094000FF90EF90DF90CF90BF90AF909F908F90EF
:100950000895CF93DF93EC01FE016491662329F0A3
:100960008CE891E06CDF2196F7CFDF91CF9108956D
:10097000D6D140E060E08CE891E043DF80EF92E088
:10098000E8DF41E060E08CE891E03BDF83E990E064
:10099000B2D1809161000BDF81EA90E0ACD180910F
:1009A000600105DF42E060E08CE891E02ADF86EA42
:1009B00090E0A1D180916200FADE81EA90E09BD1C3
:1009C00080916301F4DE43E060E08CE891E019DFA0
:1009D00080915F01882321F084EB90E08CD106C0E8
:1009E0008EEB90E088D180916000E1DE43E06EE420
:1009F0008CE891E006DF87EC90E07DD18091ED00FE
:100A0000843618F482EB90E076D18091ED008A3044
:100A100018F482EB90E06FD16091ED0070E080E01F
:100A200090E04AE029D18CEC90E065D165C1BADD57
:100A30008093ED0081112EC082E3B4D170D140E0EB
:100A400060E08CE891E0DDDE86E992E082DF42E062
:100A50006FE08CE891E0D5DE84E892E07ADF4CD15B
:100A600080915F01811104C060E070E08EE02ED3C0
:100A700099DD8A3010F456DDFBCF8FE793D192DDFC
:100A80008093ED0080915F01811104C060E070E00F
:100A90008DE01CD36DDF88E592E090935E0180933A
:100AA0005D0108956091610070E08EE40FD360E015
:100AB00070E0CB0164D3811102C08FEF08C01092A7
:100AC0008901809185018B30C1F7809187018093E6
:100AD00063016091610070E0762F6627809162006B
:100AE000682B8FE0F3D210925F0142CF1F920F92DA
:100AF0000FB60F9211242F933F934F935F936F93F1
:100B00007F938F939F93AF93BF93EF93FF93E09166
:100B10003C01F0913D01309709F451C0968DA685B6
:100B2000B785858591FF04C09C91892329F447C02E
:100B30009C91892309F043C0A389B4899C9185893C
:100B4000809589238C93868997890197F1F7608D29
:100B5000718DA685B785558538E020E0CB010197DA
:100B6000F1F7822F90E095958795282F4C9145239A
:100B700009F02068315091F7868D81FD2095809194
:100B80003B0190E001968F73992730913A01381715
:100B900049F0A0913B01B0E0A251BF4F2C9380934C
:100BA0003B0103C0868D8160868F828D938D019776
:100BB000F1F7A389B4899C918589892B8C93FF9146
:100BC000EF91BF91AF919F918F917F916F915F91C5
:100BD0004F913F912F910F900FBE0F901F9018953E
:100BE00018951F920F920FB60F9211248F930FB684
:100BF000F894A89581B5886181BD11BC0FBE8F9115
:100C00000F900FBE0F901F9018953FB7F8948091EA
:100C1000910190919201A0919301B091940122B71A
:100C200008B601FE05C02F3F19F00196A11DB11DA8
:100C30003FBFBA2FA92F982F8827820F911DA11D82
:100C4000B11DBC01CD0143E0660F771F881F991FBE
:100C50004A95D1F70895009761F0FC0101900020BA
:100C6000E9F73197AF01481B590BBC018CE891E0C3
:100C700087CB80E090E008958F929F92AF92BF92D1
:100C80000F931F93CF93DF93CDB7DEB7A1970FB626
:100C9000F894DEBF0FBECDBF19A2423008F44AE07F
:100CA0008E010F5D1F4F842E912CA12CB12CA5011C
:100CB000940139D6E62FB901CA0101501109EA3071
:100CC00014F4E05D01C0E95CD801EC93232B242BE4
:100CD000252B69F7C801BFDFA1960FB6F894DEBFD8
:100CE0000FBECDBFDF91CF911F910F91BF90AF90FD
:100CF0009F908F900895AFCFCF93C091640080E212
:100D0000C827C093640074DD8C2F64DD5EDD909194
:100D1000630084E0892780936300CF9108951F9337
:100D2000CF93DF93C0E010E84C2F60E08CE891E0B7
:100D300068DD80918B01D12FD81B10938B014FDD83
:100D400080E048DD811104C040DD49DD80E042DD06
:100D5000D150B1F73ADDCF5FC43031F740E060E009
:100D60008CE891E0DF91CF911F914BCD80B58E7FC4
:100D700080BD86B1806986B917B885B7877E8860DF
:100D800085BF85B7806285BF889585B78F7D85BF14
:100D90003699FECF24B135B1379890B5916090BDAA
:100DA000C9010895CF93C82F23DD81E813DD8C2F6F
:100DB00011DDCF910ACDFC0190916401960F492F6E
:100DC00050E024E030E0261B31092417350714F4E5
:100DD00094E0961B909364014091640160E0CF0120
:100DE00010CDCF93DF9390E0FC01E45EFC4F2491A3
:100DF000FC01EE5EFC4F8491882361F190E0880F46
:100E0000991FFC01EA5FFC4FC591D491FC01E45F9E
:100E1000FC4FA591B491611109C09FB7F8948881E6
:100E2000209582238883EC912E230BC0623061F4DD
:100E30009FB7F8948881322F309583238883EC9173
:100E40002E2B2C939FBF06C08FB7F894E8812E2BD2
:100E500028838FBFDF91CF9108958F929F92AF9299
:100E6000BF92CF92DF92EF92FF926B017C01CDDEB9
:100E70004B015C01C114D104E104F104E9F0C5DEC9
:100E8000DC01CB0188199909AA09BB09883E934066
:100E9000A105B10578F321E0C21AD108E108F108F3
:100EA00088EE880E83E0981EA11CB11CC114D104E9
:100EB000E104F10421F7DECFFF90EF90DF90CF90B7
:100EC000BF90AF909F908F900895CF9380916501D0
:100ED00090916601DC01ED91FC910084F185E02D9B
:100EE0000995892B09F4B7C060E070E0CB01B5DF4C
:100EF000C09183018091650190916601DC01ED91C3
:100F0000FC910284F385E02DC11108C009958093FE
:100F10006F018E37D9F68091830199C00995EC2F26
:100F2000F0E0EB59FE4F8287809183018230A1F07F
:100F30008930C1F0813009F08AC0909170019F3FE3
:100F400009F485C01092830181E08093850110929D
:100F5000880110928701B0C090917101963009F418
:100F600076C0F0CF809178018F3E61F7E0E7F1E045
:100F700086E791E020E030E04191240F311D8E178B
:100F80009F07D1F78091760190E0982F88274091B4
:100F90007701840F911D31952195310982179307AF
:100FA00089F610928301E0917201E13409F44CC09A
:100FB000E09386018091740190E0982F882720911A
:100FC0007501820F911D90938801809387014E2FA8
:100FD00050E0FA01FA97E631F10568F5E15FFF4F5D
:100FE000099485E022C080FF02C089E01EC081FF15
:100FF00002C084E01AC083709927892B09F462C06B
:101000008AE013C080FF02C087E00FC081FF5AC092
:1010100082E00BC080FF02C088E007C081FF52C0A1
:1010200083E003C086E001C08BE08093850181E00E
:101030008093890147C081E08093850110928801E7
:10104000109287018093890110928A013BC08F5FC3
:10105000809383013BCF80918A01882399F12FB738
:10106000F8948091950190919601A0919701B0918B
:1010700098012FBF4091670150916801609169010B
:1010800070916A01841B950BA60BB70B40916B0105
:1010900050916C0160916D0170916E0184179507FC
:1010A000A607B70778F0109283011092850110927D
:1010B00088011092870181E08093890110928A0152
:1010C00080E002C080918901CF91089580937C01D6
:1010D00070937E0160937F01EAE7F1E020E831E060
:1010E00080E090E04191840F911D2E173F07D1F7CA
:1010F00091958195910990938001809381018091D0
:101100007D01882351F080918A01882331F060E0CD
:1011100070E0CB01A2DED9DEF6CF8091650190911F
:101120006601DC01ED91FC910280F381E02D4AE043
:1011300050E069E771E009952FB7F8948091950127
:1011400090919601A0919701B09198012FBF809343
:10115000670190936801A0936901B0936A0180913F
:101160007D0191E0811101C090E090938A0181118D
:1011700005C06AE070E080E090E06FCE08958F9245
:101180009F92AF92BF92CF92DF92EF92FF926B014C
:101190007C018FB7F8948090950190909601A09073
:1011A0009701B09098018FBFC114D104E104F104FC
:1011B00041F4C0906B01D0906C01E0906D01F09013
:1011C0006E0183DE811119C09FB7F894409195019B
:1011D0005091960160919701709198019FBF4819B5
:1011E00059096A097B09C416D506E606F70628F0F0
:1011F00060E070E0CB0131DEE4CFFF90EF90DF9054
:10120000CF90BF90AF909F908F9008951F920F92B4
:101210000FB60F9211242F933F938F939F93AF9309
:10122000BF938091950190919601A0919701B09103
:1012300098013091900126E0230F2D3720F402967B
:10124000A11DB11D05C029E8230F0396A11DB11DE5
:10125000209390018093950190939601A09397011C
:10126000B09398018091910190919201A091930186
:10127000B09194010196A11DB11D809391019093AD
:101280009201A0939301B0939401BF91AF919F916C
:101290008F913F912F910F900FBE0F901F90189537
:1012A00078948AB582608ABD8AB581608ABD83B729
:1012B000826083BF83B7816083BF89B7826089BF43
:1012C00080B7826080BF80B7816080BF329A319AD8
:1012D0003098379A8CB580648CBD14BE88E981BD86
:1012E00082E481BDA89586E086B9339A789480B56A
:1012F000816080BD60E089E074DD60E086E071DDE2
:10130000E0913601F0913701099572DAC2EBD2E033
:101310004AEBE42E42E0F42EFE011491812F5ADABA
:10132000811104C052DA64DA812F54DA2196EC1666
:10133000FD0691F74ADA8DE890E0909339018093A9
:1013400038018FE72FDDEBDC53DA8FEA43DA3DDA41
:101350009091630084E0892780936300E0DC40E0A3
:1013600060E08CE891E04DDA80EF92E0F2DA41E063
:1013700060E08CE891E045DA8EEC90E0BCDCBCDC0F
:101380001092590110925801109257011092560173
:1013900010925501109254018DEC90E090935B01F6
:1013A00080935A0130914A01353020F545E550E0EF
:1013B00050935501409354014BEC50E0509357012A
:1013C0004093560140E950E0509359014093580131
:1013D0002BB720622BBF45E350E05093520140935E
:1013E000510121E001C0220F3A95EAF72093530101
:1013F0000197F1F78091580190915901892B49F19A
:10140000E0913C01F0913D0121E0EE33F20709F15A
:10141000309739F0A389B4899C9185898095892377
:101420008C9380915C018E7F80935C0110923B01D4
:1014300010923A018EE391E090933D0180933C013C
:10144000E0915101F0915201908180915301892BDB
:1014500080838EE391E0909366018093650181E043
:1014600080937D0160E070E08CE030DE60ED77E03D
:1014700080E090E084DE68EC70E080E090E0EDDCFD
:101480001092890180918501843021F1893011F118
:1014900046DC40E060E08CE891E0B3D98AED92E070
:1014A00058DA42E060E08CE891E0ABD988EC92E059
:1014B00050DA43E060E08CE891E0A3D98AEB92E057
:1014C00048DA1ADC82E36EDC60E070E08AE0FEDD80
:1014D00029D8FECFACDA84EF91E0A0E0B0E08093B1
:1014E0006B0190936C01A0936D01B0936E016091BC
:1014F000600070E086E0EADD60E070E08FE4E6DD49
:1015000060E070E0CB013BDE882331F0109289016E
:10151000809185018B3011F08FEF02C0809187019F
:1015200080936001BFDA33E0E32EC2E2D0E0DD2435
:10153000D39400E010E0FF24F394C7DC8823B1F0DB
:101540001092890180918501853081F4609162005B
:1015500080916301681750F46F5F6093620080911F
:10156000610070E0782B8FE0B1DD02DA80B58E7F0C
:1015700080BD86B1806986B9E7B885B7877E886007
:1015800085BF28E080E090E035B7306235BF8895B0
:1015900035B73F7D35BF3699FECF44B155B1840F85
:1015A000951F215089F7379820B5216020BD23E091
:1015B000969587952A95E1F7209161013091620116
:1015C000A901485051098417950728F0285F3F4F1B
:1015D0002817390720F4909362018093610180916C
:1015E000610190916201BE0177D180916000861700
:1015F00031F060936000772786E068DDB9D9B6DB0B
:101600005C0188EEA81683E0B80670F080915D0159
:1016100090915E01019790935E0180935D01892B0B
:1016200009F043C004DA41C0C50183509340879755
:1016300078F48091610090916001891720F48F5FA8
:101640008093610002C0F0926100F09262002ADA99
:10165000C50185519240879768F48091620090910E
:101660006301891720F48F5F8093620002C0F092BB
:10167000620018DAE5EBAE1AE2E0BE0AF7E2AF1656
:10168000B10470F480915F0160E070E08D2580937B
:101690005F01882311F08EE001C08DE017DD68D96D
:1016A00065DB883E9340E0F3B1CF3CD701151105CF
:1016B00009F443CFA5D441CF10928F0110928E012F
:1016C00083E790E090938D0180938C018CE380936D
:1016D000340187EC92E0909337018093360181ECDE
:1016E00092E0909333018093320182EB92E09093E9
:1016F0002F0180932E018EE493E09093310180932B
:101700003001109241011092400188EE93E0A0E078
:10171000B0E08093420190934301A0934401B093C1
:1017200045018FE790E090933F0180933E01109236
:1017300055011092540110925701109256011092C7
:1017400059011092580110925B0110925A01609158
:101750005C016E7F6D7F60935C016695617081E0D6
:10176000682771D061E081E03CDBEDE1F3E0E491DA
:10177000E0934E01E3E1F3E0E491F0E0EE0FFF1FB0
:10178000E45FFC4F859194919093500180934F01B9
:1017900060E084E026DB80915C0181FD03C061E0B4
:1017A00084E051D084E080934A01E0E2F3E0E491E8
:1017B000E0934B01E6E1F3E0E491F0E0EE0FFF1F70
:1017C000E455FD4F8591949190934D0180934C0188
:1017D00084EF91E0A0E0B0E080936B0190936C0106
:1017E000A0936D01B0936E018AE0E5E6F0E0A9E711
:1017F000B1E001900D928A95E1F71092830182E0A9
:10180000809384011092890110928A0108958FE7D4
:1018100090E090933F0180933E0180913C01909134
:101820003D018E53914071F4E0915101F0915201CC
:1018300090818091530180958923808310923D018E
:1018400010923C01089590E0FC01EA5DFC4F249168
:10185000FC01E45EFC4F3491FC01EE5EFC4FE49130
:10186000EE2341F1222399F0223071F028F4213047
:1018700071F48AB58F770AC0233011F0243039F41F
:101880008CB58F7D8CBD03C08AB58F7D8ABDF0E09D
:10189000EE0FFF1FE45FFC4FA591B4919FB7F89442
:1018A000611104C08C913095382302C0EC913E2B1D
:1018B0003C939FBF08950024552704C0080E591F6C
:1018C000880F991F009729F076956795B8F37105F1
:1018D000B9F7802D952F0895AA1BBB1B51E107C0B6
:1018E000AA1FBB1FA617B70710F0A61BB70B881FB0
:1018F000991F5A95A9F780959095BC01CD0108953F
:1019000097FB072E16F4009406D077FD08D0E4DF8D
:1019100007FC05D03EF4909581959F4F08957095F2
:1019200061957F4F0895A1E21A2EAA1BBB1BFD01F2
:101930000DC0AA1FBB1FEE1FFF1FA217B307E407AE
:10194000F50720F0A21BB30BE40BF50B661F771F06
:10195000881F991F1A9469F76095709580959095E6
:101960009B01AC01BD01CF010895EE0FFF1F059053
:10197000F491E02D099481E090E0F89400C011E02A
:10198000C9E9D1E003C0FE01F0DF2196CA39D107D1
:06199000D1F7F894FFCF2F
:10199600140101B0407EFF06000100000000EF00C8
:1019A6000000001F04C0018F028E02000000000626
:1019B60002C0018F02050256026D02ED014A0006C1
:1019C60001207E466F6C6465723A2020202020201C
:1019D60000206F66200046696C653A202020202092
:1019E600202020003C205061757365203E00566F14
:1019F6006C756D653A20004261743A002500737477
:0A1A0600617274696E672E2E2E00C7
:00000001FF
