:1000000093C1B7C1C1C5B5C1B4C1B5CCB2C1B1C14D
:1000100091C4AFC1AEC1ADC179C4ABC1AAC1F0C971
:10002000FDC90FCAD0C90DCAD3C906CA15CA09CAA3
:1000300008CA07CA06CA05CA04CA03CA02CA0CCA41
:1000400000CAFFC9FEC9FDC9FCC9506C6561736572
:10005000207265636861726765202100212121207B
:100060004261747465727920656D70747920212104
:100070002100737461727420616761696E202100D0
:10008000436865636B2053442D4361726420616E45
:10009000640021212120202020204552524F52204F
:1000A00020202020212121002D2D2054696E79202F
:1000B0004D503320506C61796572202D2D00000069
:1000C000000000000000002F0000000007000700F3
:1000D00000147F147F1400242A7F2A12006264080F
:1000E000132300364955225000000503000000008C
:1000F0001C224100000041221C000014083E08148C
:100100000008083E0808000000A060000008080879
:100110000808000060600000002010080402003E93
:100120005149453E0000427F40000042615149462E
:10013000002141454B31001814127F10002745451E
:100140004539003C4A494930000171090503003630
:100150004949493600064949291E00003636000043
:100160000000563600000008142241000014141448
:100170001414000041221408000201510906003243
:100180004959513E007C1211127C007F4949493681
:10019000003E41414122007F4141221C007F4949EC
:1001A0004941007F09090901003E4149497A007F20
:1001B0000808087F0000417F4100002040413F01C6
:1001C000007F08142241007F40404040007F020C25
:1001D000027F007F0408107F003E4141413E007FC6
:1001E00009090906003E4151215E007F091929468F
:1001F0000046494949310001017F0101003F40406B
:10020000403F001F2040201F003F4038403F006318
:10021000140814630007087008070061514945433A
:1002200000007F414100000204081020000041410D
:100230007F000004020102040040404040400000F2
:1002400001020400002054545478007F484444388C
:1002500000384444442000384444487F0038545413
:10026000541800087E0901020018A4A4A47C007F91
:10027000080404780000447D4000004080847D0034
:10028000007F102844000000417F4000007C0418DB
:100290000478007C0804047800384444443800FCA6
:1002A000242424180018242418FC007C08040408C2
:1002B00000485454542000043F444020003C404037
:1002C000207C001C2040201C003C4030403C00446E
:1002D00028102844001CA0A0A07C004464544C4476
:1002E0000008364141000000007F0000000041414D
:1002F0003608000804081008C8A1A81FDA028D14E7
:10030000010200000400010204081020020202029F
:10031000020200000000360000000000380000006B
:10032000000037009B04D20411241FBECFE5D2E0A9
:10033000DEBFCDBF10E0A0E6B0E0EEE7FDE102C019
:1003400005900D92AA3CB107D9F721E0AAECB0E0E4
:1003500001C01D92AF38B207E1F711E0C3E9D1E067
:1003600003C02197FE01F9DCC239D107D1F7EEDADB
:10037000FACC46CE81E791E023C7682F81E791E070
:10038000F8D621E0892B09F420E0822F0895682F08
:1003900081E791E0E8C681E791E0E4C6CF93DF937F
:1003A000EC01FE016491662329F08CE191E060DAB2
:1003B0002196F7CFDF91CF910895CF93C82F8A3040
:1003C00028F46BE870E08CE191E051DA4AE050E00B
:1003D0006C2F8CE191E0CF91B3CA65E670E08CE1BF
:1003E00091E045DA80911901843628F46BE870E0D9
:1003F0008CE191E03CDA809119018A3028F46BE8B5
:1004000070E08CE191E033DA4AE050E0609119014C
:100410008CE191E095DA6AE670E08CE191E027CA20
:100420008CE191E083D640E060E08CE191E0A2D5E0
:1004300088EA90E0B3DF41E060E08CE191E09AD59A
:100440006CE670E08CE191E012DA80916100B5DF3A
:100450006AE770E08CE191E00ADA80911A01ADDF81
:1004600042E060E08CE191E085D56FE770E08CE1DF
:1004700091E0FDD980916000A0DF6AE770E08CE137
:1004800091E0F5D980911B0198DF43E060E08CE1B9
:1004900091E070D580911801882331F06DE870E00B
:1004A0008CE191E0E4D908C067E970E08CE191E06B
:1004B000DED98091620081DF43E06EE48CE191E05F
:1004C00059D58BDF8CE191E041C66091610070E00D
:1004D0008AEC90E0ECD880931B0140916000609121
:1004E00061008AEC90E06FD91092180199CF90B515
:1004F0009E7F90BD96B1906996B987FD80588770B0
:1005000087B985B7877E886085BF85B7806285BFDC
:10051000889585B78F7D85BF3699FECF24B135B1DB
:10052000379890B5916090BDC901089590B59E7FB0
:1005300090BD96B1906996B987FD8058877087B94C
:1005400085B7877E886085BF28E080E090E035B77A
:10055000306235BF889535B73F7D35BF3699FECFC0
:1005600044B155B1840F951F215089F7379820B5B4
:10057000216020BD23E0969587952A95E1F708959F
:1005800080B58E7F80BD86B1806986B98CE087B9E1
:1005900062E070E080E090E06BDA85B7877E88608B
:1005A00085BF85B7806285BF889585B78F7D85BFFC
:1005B0003699FECF24B135B140E050E0379880B590
:1005C000816080BD64EB7BE281E190E088DB2038D4
:1005D0008CE038074105510568F0DA01C901853022
:1005E00020E19207A105B10548F084E090E1A0E088
:1005F000B0E004C080E89CE0A0E0B0E0BC01CD0128
:1006000060587C408109910929E030E040E050E0E9
:1006100066DB822F089514BE88E981BD82E481BD26
:10062000A895089585B7877E806185BF8AB7806267
:100630008ABF80B58F6080BDF894EDDF85B780629A
:1006400085BF7894889585B78F7D85BF80B5807F7D
:1006500080BD80B5816080BD089592DF80931901CF
:10066000811134C062E38CE191E078D58CE191E0B6
:100670005DD540E060E08CE191E07CD48CE590E0D9
:100680008DDE42E06FE08CE191E074D48AE490E08A
:1006900085DE8CE191E05AD580911801811103C06B
:1006A0008AEC90E083D86CDF8A3010F4BBDFFBCF9C
:1006B0006FE78CE191E052D563DF8093190180915F
:1006C0001801811103C08AEC90E00DD8A9DE88E5FD
:1006D00092E090931701809316010895CF93DF93D2
:1006E0008AEC90E0F1D68823C1F08AEC90E03ED607
:1006F000C82F8AEC90E03ED6C53079F44091600076
:1007000080911B01481748F44F5F4093600060914F
:1007100061008AEC90E057D883DE83E807DF209100
:10072000140130911501A90148505109841795070A
:1007300028F0285F3F4F2817390720F490931501C0
:1007400080931401809114019091150162E270E090
:100750009FDA80916200861731F0609362008AEC24
:1007600090E011D85DDE80E8C2DEEC01883E23E037
:10077000920770F080911601909117010197909364
:10078000170180931601892B09F041C066DF3FC035
:1007900083509340879778F48091610090911A017B
:1007A000891710F48F5F01C081E08093610081E0C0
:1007B000809360008ADECE0185519240879760F475
:1007C0008091600090911B01891710F48F5F01C028
:1007D00081E08093600079DEC55BD240A79788F402
:1007E0008091180191E0811190E09093180181119E
:1007F00004C08AEC90E0DAD703C08AEC90E073D7AB
:100800000FDE80E874DE883E9340D8F3B3CFDF91EB
:10081000CF9108CF00DF86E086B9339A789480B50F
:10082000816080BD60E083E885D960E080E882D99E
:100830008CE191E096D36CEA70E08CE191E095D385
:100840006FE78CE191E08AD48CE191E06FD48CE188
:1008500091E086D48CE191E06BD48CE191E066D498
:1008600040E060E08CE191E085D388EA90E096DD9D
:1008700041E060E08CE191E07DD360EA70E08CE1E2
:1008800091E0F5D78CE191E061D440E855E260E079
:1008900070E085EF90E06FD265EF70E08AEC90E059
:1008A00060D5811127C08CE191E040D440E060E048
:1008B0008CE191E05FD382E990E070DD42E060E09E
:1008C0008CE191E057D380E890E068DD43E060E0A0
:1008D0008CE191E04FD382E790E060DD8CE191E024
:1008E00035D462E38CE191E039D48AEC90E079D799
:1008F00099DEFECFB2DE609162008AEC90E043D7D1
:100900008AEC90E006D780931A01DFCD1F920F92F8
:100910000FB60F9211248F930FB6F894A89581B556
:10092000886181BD11BC0FBE8F910F900FBE0F90DB
:100930001F9018951895EF92FF920F931F938AEBD3
:10094000E82E81E0F82E0DEB11E027EC31E04BECC6
:1009500051E06CE38CE191E0BBD220E041E064E047
:1009600085EF90E0DFD18AE0ECECF0E0DF011D9252
:100970008A95E9F7EAECF0E0148615861686178664
:10098000108A118A138A178A108E84EF91E0A0E0F2
:10099000B0E0858F968FA78FB0A31F910F91FF9026
:1009A000EF90089585EF90E069C120916201309148
:1009B000630128173907B9F4909120018091210132
:1009C000981789F0E0912001F0E0EE5DFE4F808104
:1009D0002091200130E02F5F3F4F2F73332720936A
:1009E000200190E008958FEF9FEF08951F93CF931C
:1009F000DF93DC015C968D919C915D97009739F4B3
:100A000021E030E013963C932E9312973BC0519611
:100A1000ED91FC91529750962C915097322F309532
:100A20001FB75E964C915E97742F727041FD609572
:100A3000F8944081772311F0422B01C04323408377
:100A4000EC012197F1F748E0508160FF02C0522B82
:100A500001C053235083EC012197F1F76695415073
:100A600099F78081772319F08323808302C0282B94
:100A700020831FBF5C968D919C915D970197F1F744
:100A800081E090E0DF91CF911F9108952091620164
:100A9000309163012817390781F4909120018091EA
:100AA0002101981751F0E0912001F0E0EE5DFE4F3A
:100AB0008081082E000C990B08958FEF9FEF089509
:100AC00020916201309163012817390769F4809100
:100AD00021012091200190E0805C9F4F821B9109B1
:100AE00060E470E0E9D8089580E090E008952091F6
:100AF0006201309163012817390739F48FB7F894F0
:100B000010922101109220018FBF0895E09162019F
:100B1000F0916301E817F90769F4A389B4899C91FE
:100B20008589809589238C931092630110926201CC
:100B300081E0089580E00895CF93DF93EC018A8DE2
:100B40009B8D892BE9F08091620190916301C81718
:100B5000D907B1F0009709F0D9DF8E8D8E7F8E8F87
:100B60001092210110922001D0936301C093620181
:100B7000EB89FC8990818D89892B808381E001C07C
:100B800080E0DF91CF9108951F920F920FB60F92E0
:100B900011242F933F934F935F936F937F938F9382
:100BA0009F93AF93BF93EF93FF93E0916201F09116
:100BB0006301309709F451C0968DA685B785858568
:100BC00091FF04C09C91892329F447C09C918923FB
:100BD00009F043C0A389B4899C91858980958923B4
:100BE0008C93868997890197F1F7608D718DA68521
:100BF000B785558538E020E0CB010197F1F7822FCA
:100C000090E095958795282F4C91452309F0206811
:100C1000315091F7868D81FD20958091210190E0E2
:100C200001968F73992730912001381749F0A091D0
:100C30002101B0E0AE5DBE4F2C938093210103C033
:100C4000868D8160868F828D938D0197F1F7A389C0
:100C5000B4899C918589892B8C93FF91EF91BF91E9
:100C6000AF919F918F917F916F915F914F913F9144
:100C70002F910F900FBE0F901F90189526EB30E02C
:100C8000FC013183208342CF1F93CF93DF93EC018C
:100C9000162F6E8D6695617081E06827812F99D738
:100CA00061E0812F47D7812F90E0FC01EA5FFC4F84
:100CB000E491E88BFC01E45FFC4FE491F0E0EE0F7F
:100CC000FF1FE85EFC4F859194919A8B898BDF9191
:100CD000CF911F9108951F93CF93DF93EC01162FAF
:100CE00060E0812F27D78E8D81FD03C061E0812FC9
:100CF00070D71C87812F90E0FC01EA5FFC4FE491E4
:100D0000ED87FC01E45FFC4FE491F0E0EE0FFF1F84
:100D1000EE5EFC4F859194919F878E87DF91CF91F6
:100D20001F9108951F93CF93DF93EC01162F1B8221
:100D30001A8288EE93E0A0E0B0E08C839D83AE83BE
:100D4000BF8386EB90E0998388831F8A1E8A198E61
:100D5000188E1B8E1A8E1D8E1C8E8E8D8E7F20FB04
:100D600081F98E8F642FCE018FDF612FCE01DF914D
:100D7000CF911F91B0CFCF93DF93EC019A01AB01DC
:100D80001B8E1A8E198E188E1F8A1E8A60E874E8D0
:100D90008EE190E0C6D7B9012430310518F0C901C1
:100DA000039702C081E090E09D8F8C8F8C85863008
:100DB00008F03EC0C901969587958431910510F0E1
:100DC000439702C081E090E09F8B8E8B6630710567
:100DD00018F0C901059702C081E090E0998F888FD3
:100DE000C90163E070E043D79695879596958795FE
:100DF0008D30910510F00C9702C081E090E09B8F40
:100E00008A8F8BB780628BBF9C85963018F020E06C
:100E100030E002C025E330E03C8B2B8B81E001C049
:100E2000880F9A95EAF78D8B8C8D9D8D0197F1F740
:100E3000CE01DF91CF9180CEE0916601F091670104
:100E40000994E0916401F09165010994E0916801D1
:100E5000F091690180917001099580E4EDCFCF9305
:100E6000C82FEADF811105C0ECDFF0DF8C2FCF91B6
:100E7000E3CFCF910895E0916801F09169018091ED
:100E80007001099580E0D8CFCF93C82FF4DF8C2F65
:100E9000D3DFCF91D6CFCF93DF93D82FC62FEBDF01
:100EA0008D2FCADF8C2FC8DFDF91CF91CACF1F9360
:100EB000CF93DF93182FD62FC42FDDDF812FBCDF18
:100EC0008D2FBADF8C2FB8DFDF91CF911F91B9CF73
:100ED000EF92FF920F931F93DC0113961C921E92C8
:100EE0001297E6ECF0E0ED93FC9360937001509361
:100EF0006B0140936A01309369012093680110935C
:100F0000670100936601F0926501E09264011F9110
:100F10000F91FF90EF900895EF92FF921F93CF9360
:100F2000DF93162F7A01E0916A01F0916B01099528
:100F3000A2DFE701E10EF11CCE15DF0561F0FE0135
:100F40001491812F79DF811104C07BDF94DF812F21
:100F500073DF2196F1CFDF91CF911F91FF90EF903A
:100F600070CF48EF52E068E0D7CF70936F01609385
:100F70006E010895CF93DF93C62FD42F462F4F7065
:100F800062956F7060619D2F977080916400892BCE
:100F90008EDFC0936D01D0936C01DF91CF910895E6
:100FA000FC0190916C01960F492F50E024E030E055
:100FB000261B31092417350714F494E0961B9093EF
:100FC0006C0140916C0160E0CF01D4CF9F92AF9251
:100FD000BF92CF92DF92EF92FF920F931F93CF9326
:100FE000DF93E0916E01F0916F01309709F461C0D9
:100FF0006D3009F45EC0162FEC01D3806A3019F40D
:101000006D2DCEDF56C0928020916D0130E0E92C2D
:10101000F12C80E890E08E199F09821793071CF449
:101020006D2DCE01BDDF212F30E0E0916E01F091FA
:101030006F0144818D2D90E0B70119D6BC01C90123
:10104000841B910914D68C01CD2C00DFF8018E2F62
:10105000801B891580F45F018FEFA81AB80AA09150
:101060006E01B0916F018D919C91E80FF91F8491F1
:10107000F6DEF501ECCF0E0D1F1DE3DE81E0D81288
:1010800006C080916D01890D80936D010FC0409164
:101090006C0181E04F5F8C1518F460916D0104C004
:1010A0004D1960916D01690DCE0164DFCA94C110C4
:1010B000CCCF81E090E0DF91CF911F910F91FF9015
:1010C000EF90DF90CF90BF90AF909F900895CF9317
:1010D000DF93D62FC42F80916D01840F80936D0113
:1010E000B5DE8D2FBCDEC150E1F7DF91CF91A9CEE7
:1010F00020916D0140E8421BEACF0F931F93CF93DD
:10110000DF938C01D62FC0E04C2F60E0C80132DFA6
:101110006D2FC801EDDFCF5FC430B1F740E060E074
:10112000C801DF91CF911F910F9124CF60E0E5CFEF
:101130009091640084E089278093640008959091E1
:10114000630080E28927809363009ECECF93DF9374
:10115000EC01F5DFCE01DF91CF91EACF81E89BCEA4
:101160008FEA92CE2FC010927201660F60937301C6
:101170000895E0917201E13150F4EF5FE093720164
:10118000F0E0ED58FE4F608381E090E0089580E04C
:1011900090E00895CF93C62F609172016F5F83E74F
:1011A00091E0C4D010927201882329F0CC2329F059
:1011B000C0D0811102C0CF9110C080E0CF910895BE
:1011C00061E0E8CFC09AC29ABA9AB89A8FEF8FB905
:1011D0008AE28DB980EF8EB90895809185010895D6
:1011E0008EB98BE29DE09A95F1F700008DB9B29B24
:1011F000FECF9AE09A95F1F700C08DB9769BF2CFB9
:101200008DE08A95F1F700008FB19FEF9FB9B89AF2
:101210000895C29AC29BFECF8DE08A95F1F7000037
:10122000C0988AE08A95F1F700C0C298C09A779971
:1012300005C083E08093850180E0089581E00895F2
:10124000AF92BF92CF92DF92EF92FF920F931F93D4
:10125000CF93DF938C01E62E80918501816080938E
:101260008501F801908190FD03C082608093850123
:10127000D0DF882309F44FC0FE2CE801BB24BA94C8
:10128000AA24A3948091850183709E012F5F3F4F14
:101290006901882361F1C29888818FB980EFA0DF4E
:1012A000B8988EEF9DDF9091850180FF0BC0892F4C
:1012B000817090FF05C081E08093850180E02BC0A4
:1012C00092E00EC0892F8570843069F4F801808126
:1012D00081608083A09285019CDF811116C09AE015
:1012E0009093850118C09E7F909385010CC0B8989B
:1012F00080EF76DF8883F1E0FF1202C0BFB801C043
:101300001FB88EEF6DDFE60102C0FE2CE801FA94F3
:10131000F110B8CF81E0DF91CF911F910F91FF9035
:10132000EF90DF90CF90BF90AF900895109285011D
:1013300087CFC098C29AB29BFECF8AE08A95F1F718
:1013400000C0C09A8DE08A95F1F700009EB1892F08
:10135000807295FD04C094E090938501089581E02A
:101360000895FC017183608381E00895FC01178A70
:1013700082890895FC01178A848995890895DC0182
:101380009496EC919497E13409F474C05696EC93DA
:10139000569796968C91969790E0982F88279796D7
:1013A0002C919797820F911D55969C938E935497ED
:1013B0004E2F50E0FA01FA97E631F10508F04CC0E3
:1013C000E15FFF4F099453961C92539785E03DC00F
:1013D00080FF05C053961C92539789E036C081FF69
:1013E00005C053961C92539784E02FC083709927B1
:1013F000892B09F441C053961C9253978AE025C06B
:1014000080FF05C053961C92539787E01EC081FF52
:1014100033C053961C92539782E017C080FF05C0DB
:1014200053961C92539788E010C081FF25C05396B5
:101430001C92539783E009C053961C92539786E001
:1014400004C053961C9253978BE052968C935297FC
:1014500081E057968C93089553961C92539781E0A0
:1014600052968C93529755961C921E92549757966B
:101470008C93579758961C920895FB013196695F9B
:101480007F4F80E090E02191820F911DE617F707D2
:10149000D1F79195819591090895CF93DF93EC0150
:1014A000BC016F5D7F4FE9DF28A530E0322F222796
:1014B00049A5240F311D41E02817390709F040E004
:1014C000842FDF91CF9108950F931F93CF93DF93D4
:1014D000EC0188819981DC01ED91FC910480F5811A
:1014E000E02D0995892BE1F160E070E0CB01C0D2DD
:1014F0001B8988819981DC01ED91FC910680F7813F
:10150000E02D111106C0099589A38E3711F78B893B
:1015100024C00995FE01E10FF11D81A38B89823062
:1015200069F0893079F08130C1F49AA19F3FA9F028
:101530001B8A81E08A8B1D8A1C8A2EC09BA1963053
:1015400061F0F6CF8AA58F3E99F7CE01A6DF8823FA
:1015500079F31B8ACE0113DF23C08F5F8B8BB9CF4A
:10156000888D8823E9F051D2098D1A8D2B8D3C8D01
:10157000DC01CB01801B910BA20BB30B0D8D1E8DDB
:101580002F8D38A180179107A207B30748F01B8A57
:101590001A8A1D8A1C8A81E08F8B188E80E001C018
:1015A0008F89DF91CF911F910F9108958F929F9214
:1015B000AF92BF92CF92DF92EF92FF921F93CF93A1
:1015C000DF93EC016A017B0120D24B015C01C11465
:1015D000D104E104F10421F4CD8CDE8CEF8CF8A071
:1015E000CE0172DF182F811111C00FD2DC01CB01A7
:1015F00088199909AA09BB09C816D906EA06FB0683
:1016000028F060E070E0CB0133D2EACF812FDF9188
:10161000CF911F91FF90EF90DF90CF90BF90AF9050
:101620009F908F900895CF93DF93EC018E81882354
:1016300051F0888D882339F060E070E0CB0118D23A
:10164000CE0142DFF6CFDE018D919D91BD01DC011F
:10165000ED91FC910280F381E02D4AE050E0099584
:10166000D4D1698F7A8F8B8F9C8F8E8191E081117D
:1016700001C090E0988F811107C06AE070E080E0BF
:1016800090E0DF91CF91F4C1DF91CF910895CF9396
:10169000DF93EC016D835F834887BC016E5F7F4FF2
:1016A000ECDE99878A87CE01DF91CF91BCCFCF93B3
:1016B000DF93EC01AB016EE4EADF40E050E0BA01F9
:1016C000CE0174DF811103C08FEF9FEF06C01F8A28
:1016D0008A898B30C9F78C899D89DF91CF910895D4
:1016E00040E050E0D4CF6DE0FBCFFC01248530E03A
:1016F0002B5F3E4F8585280F311D8685280F311DB4
:101700008785280F311D319521953109308B218B2B
:101710000895CF93DF93EC016FE4E2DF40E050E007
:10172000BA01CE0143DF811103C08FEF9FEF06C0E6
:101730001F8A8A898B30C9F78C899D89DF91CF9167
:101740000895FC018EE782838FEF838386E0848394
:10175000848585838585868386858783878580873D
:1017600080898187818982878FEE8387DF018D91D0
:101770009D91BD01DC01ED91FC910280F381E02D92
:101780004AE050E00994CF93DF936F3160F4EC01AD
:1017900086E08C871D861E866F87CE01A6DFCE0170
:1017A000DF91CF91CECFDF91CF910895FC018EE0F4
:1017B00084871586168681E087878EEF808B8CEE76
:1017C000818BCF01BECFCF93DF93EC018FE08C876D
:1017D0001D866E874F87CE0188DFCE01DF91CF91C6
:1017E000B0CFCF93DF93EC0189E08C871D861E86F6
:1017F00084E08F87CE0179DFCE01DF91CF91A1CF39
:10180000CF92DF92EF92FF920F931F93CF93DF93CC
:101810006C01EB017B01E40EF51E00E010E0CE153B
:10182000DF0561F06991D601ED91FC910190F081A5
:10183000E02DC6010995080F191FF1CFC801DF91EE
:10184000CF911F910F91FF90EF90DF90CF9008956F
:10185000FB0101900020E9F73197AF01461B570BC0
:10186000DC01ED91FC910280F381E02D0994F0CF31
:10187000DC01ED91FC910190F081E02D09948F92B3
:101880009F92AF92BF92CF92DF92EF92FF920F930F
:101890001F93CF93DF93CDB7DEB7A1970FB6F89420
:1018A000DEBF0FBECDBF6C01142FE52FCB01022F81
:1018B00019A2223008F40AE07E0121E2E20EF11CB6
:1018C000802E912CA12CB12C612F7E2FA50194018B
:1018D00006D2802F622FC2D1181B81E0E81AF108CE
:1018E0001A3014F4105D01C0195CF7011083122F37
:1018F000E32FCA01232B242B252B31F7B701C60177
:10190000A7DFA1960FB6F894DEBF0FBECDBFDF9163
:10191000CF911F910F91FF90EF90DF90CF90BF90EC
:10192000AF909F908F9008952115310541F4DC010F
:10193000ED91FC910190F081E02D642F09949FCFEF
:101940009A01462F50E060E070E0EECF81B781BF92
:10195000B9D060D7C3D6FECF80B7807F80BF80B7B5
:10196000806880BF8CB580648CBD8FEF8DBD80B7E3
:10197000876080BF08951F920F920FB60F921124B7
:101980002F933F938F939F93AF93BF938091870142
:1019900090918801A0918901B0918A0130918601CE
:1019A00026E0230F2D3730F029E8230F0396A11DE1
:1019B000B11D03C00296A11DB11D20938601809325
:1019C000870190938801A0938901B0938A01809147
:1019D0008B0190918C01A0918D01B0918E010196A7
:1019E000A11DB11D80938B0190938C01A0938D015B
:1019F000B0938E01BF91AF919F918F913F912F91A5
:101A00000F900FBE0F901F9018952FB7F89460910C
:101A10008701709188018091890190918A012FBF7F
:101A200008953FB7F89480918B0190918C01A0911B
:101A30008D01B0918E0122B708B601FE05C02F3F7F
:101A400019F00196A11DB11D3FBFBA2FA92F982FE4
:101A50008827820F911DA11DB11DBC01CD0143E05E
:101A6000660F771F881F991F4A95D1F7089508952B
:101A7000CF92DF92EF92FF92CF93DF936B017C01C5
:101A8000D0DFEB01C114D104E104F104A1F0EFDFD8
:101A9000C8DF6C1B7D0B683E7340A0F3C114D104FA
:101AA000E104F10479F381E0C81AD108E108F108F2
:101AB000C851DC4FEDCFDF91CF91FF90EF90DF90D9
:101AC000CF9008958AB582608ABD8AB581608ABD4B
:101AD00083B7887F836083BF789489B7826089BF2A
:101AE0003BDF86B18877866886B9379A089581305A
:101AF00031F48AB58F778ABD8AB58F7B07C0823073
:101B000039F48AB58F7D8ABD8AB58F7E8ABD0895E6
:101B1000833039F480B78F7D80BF80B78F7E80BFE0
:101B20000895843031F48CB58F7D8CBD8CB58F7E5B
:101B30008CBD0895CF93DF9387FF11C08F7741F05D
:101B4000813041F0823041F0833041F08FEF07C0A7
:101B500085E005C082E003C084E001C083E090E03E
:101B6000FC01EA5FFC4F2491FC01E45FFC4F84918F
:101B7000882361F190E0880F991FFC01E25EFC4F21
:101B8000C591D491FC01E85EFC4FA591B49161111F
:101B900009C09FB7F8948881209582238883EC91AF
:101BA0002E230BC0623061F49FB7F8948881322FE6
:101BB000309583238883EC912E2B2C939FBF06C0F6
:101BC0008FB7F894E8812E2B28838FBFDF91CF91B8
:101BD00008951F93CF93DF93162F87FF11C08F7740
:101BE00041F0813041F0823041F0833041F08FEF9D
:101BF00007C085E005C082E003C084E001C083E047
:101C0000282F30E0F901E050FD4F8491F901EA5F9F
:101C1000FC4FD491F901E45FFC4FC491CC23D1F087
:101C2000811165DFEC2FF0E0EE0FFF1FE85EFC4F47
:101C3000A591B491111108C09FB7F8948C91D095DB
:101C4000D823DC939FBF06C08FB7F894EC91DE2BAE
:101C5000DC938FBFDF91CF911F910895002480FD09
:101C6000060E660F11F08695D1F7802D0895002499
:101C7000552704C0080E591F880F991F009729F097
:101C800076956795B8F37105B9F7802D952F08956E
:101C9000AA1BBB1B51E107C0AA1FBB1FA617B70792
:101CA00010F0A61BB70B881F991F5A95A9F78095AE
:101CB0009095BC01CD01089597FB072E16F4009472
:101CC00006D077FD08D0E4DF07FC05D03EF4909500
:101CD00081959F4F0895709561957F4F0895A1E27A
:101CE0001A2EAA1BBB1BFD010DC0AA1FBB1FEE1F96
:101CF000FF1FA217B307E407F50720F0A21BB30BE1
:101D0000E40BF50B661F771F881F991F1A9469F75C
:101D100060957095809590959B01AC01BD01CF01B8
:101D20000895052E97FB16F400940FD057FD05D0AB
:101D3000D6DF07FC02D046F408C050954095309598
:101D400021953F4F4F4F5F4F089590958095709527
:101D500061957F4F8F4F9F4F0895EE0FFF1F0590A6
:101D6000F491E02D099411E0C3E9D1E003C0FE0134
:0E1D7000F4DF2196C439D107D1F7F894FFCFE4
:101D7E0001011440B04261743A002500466F6C6454
:101D8E0065723A20202020202000206F6620004619
:101D9E00696C653A2020202020202020003C205015
:101DAE0061757365203E00566F6C756D653A200047
:101DBE007374617274696E672E2E2E00BE0006015A
:101DCE00207E00000000F604000C6005D5044605D8
:0A1DDE00770500000000E607000C86
:00000001FF
