:10000000A3C1C7C18DC8C5C1C4C140C8C2C1C1C197
:10001000FFC8BFC1BEC1BDC1FCC8BBC1BAC10000E1
:10002000000000000000002F000000000700070093
:1000300000147F147F1400242A7F2A1200626408AF
:10004000132300364955225000000503000000002C
:100050001C224100000041221C000014083E08142C
:100060000008083E0808000000A06000000808081A
:100070000808000060600000002010080402003E34
:100080005149453E0000427F4000004261514946CF
:10009000002141454B31001814127F1000274545BF
:1000A0004539003C4A4949300001710905030036D1
:1000B0004949493600064949291E000036360000E4
:1000C00000005636000000081422410000141414E9
:1000D00014140000412214080002015109060032E4
:1000E0004959513E007C1211127C007F4949493622
:1000F000003E41414122007F4141221C007F49498D
:100100004941007F09090901003E4149497A007FC0
:100110000808087F0000417F4100002040413F0166
:10012000007F08142241007F40404040007F020CC5
:10013000027F007F0408107F003E4141413E007F66
:1001400009090906003E4151215E007F091929462F
:100150000046494949310001017F0101003F40400B
:10016000403F001F2040201F003F4038403F0063B9
:1001700014081463000708700807006151494543DB
:1001800000007F41410000020408102000004141AE
:100190007F00000402010204004040404040000093
:1001A00001020400002054545478007F484444382D
:1001B00000384444442000384444487F00385454B4
:1001C000541800087E0901020018A4A4A47C007F32
:1001D000080404780000447D4000004080847D00D5
:1001E000007F102844000000417F4000007C04187C
:1001F0000478007C0804047800384444443800FC47
:10020000242424180018242418FC007C0804040862
:1002100000485454542000043F444020003C4040D7
:10022000207C001C2040201C003C4030403C00440E
:1002300028102844001CA0A0A07C004464544C4416
:100240000008364141000000007F000000004141ED
:10025000360800080408100825004261743A005668
:100260006F6C756D653A00203C2050617573652098
:100270003E00206F66200046696C653A20202020F1
:10028000202000206F662000466F6C6465723A2063
:100290002020200020002000506C656173652072D2
:1002A0006563686172676520210021212120426118
:1002B000747465727920656D707479202121210034
:1002C00000000000360000000000370000000000C1
:1002D0003800020202020202010204081020010298
:1002E00000000400C8A1A81FDA028D1473746172A3
:1002F0007420616761696E202100436865636B202B
:1003000053442D4361726420616E640021212120D9
:10031000202020204552524F5220202020202121F1
:1003200021005374617274696E672E2E2E002D2881
:100330002054696E79204D503320506C617965727C
:1003400020292D00580B000C11241FBECFE5D2E050
:10035000DEBFCDBF21E0AEE8B0E001C01D92A83302
:10036000B207E1F710E0A0E6B0E0EEE4F9E102C088
:1003700005900D92AE38B107D9F711E0C3EAD1E08C
:1003800003C02197FE01D1DAC23AD107D1F791D744
:10039000D2CA36CE80B58E7F80BD86B1806986B9DF
:1003A00017B885B7877E886085BF85B7806285BFAF
:1003B000889585B78F7D85BF3699FECF24B135B13D
:1003C000379890B5916090BDC9010895CF92DF92A2
:1003D000EF92FF920F931F93CF93DF936C01EB018A
:1003E0007B01E40EF51E10E000E0CE15DF0561F0A4
:1003F0006991D601ED91FC910190F081E02DC6014B
:100400000995080F191FF1CFC801DF91CF911F91F6
:100410000F91FF90EF90DF90CF900895CF93DF93EF
:1004200087FF07C08F7769F1813069F1823069F108
:1004300083E090E0FC01E852FD4F24918E529D4FE5
:10044000FC0184918823D1F090E0880F991FFC0172
:10045000EA53FD4FA591B491FC01E453FD4FC591C2
:10046000D491611114C09FB7F8948C91E22FE0955C
:100470008E238C932881E223E8839FBFDF91CF9165
:10048000089585E0D6CF82E0D4CF84E0D2CF8FB775
:10049000F894EC91E22BEC938FBFF0CF3FB7F89438
:1004A0008091D6009091D700A091D800B091D9004A
:1004B00022B708B601FE05C02F3F19F00196A11D15
:1004C000B11D3FBFBA2FA92F982F8827BC01CD019E
:1004D000620F711D811D911D43E0660F771F881FFC
:1004E000991F4A95D1F70895CF92DF92EF92FF922C
:1004F000CF93DF936B017C01D1DFEB01C114D104F9
:10050000E104F10441F412C081E0C81AD108E10805
:10051000F108C851DC4FC2DF6C1B7D0B683E734095
:1005200068F3C114D104E104F10471F7DF91CF91B4
:10053000FF90EF90DF90CF90089580910C01909103
:100540000D01DC01ED91FC910480F581E02D099510
:10055000892B09F4D3C060E070E0CB01C5DF2091A6
:100560002A0180910C0190910D01DC01ED91FC912B
:100570000680F781E02D21110BC0099580931601AB
:100580008E37D9F680912A018F5F80932A01D5CFCB
:10059000099590912A01E92FF0E0E45FFE4F8287F0
:1005A0009230A9F09930C9F0913099F48F3F89F0D9
:1005B00010922A0181E080932C0110922F01109259
:1005C0002E01809330011092310180E00895863031
:1005D00079F79F5F90932A01B0CF8F3E49F7209122
:1005E000180180911701280F3327331FE09119015B
:1005F000C9018E0F911D20911A01280F392F311D2D
:1006000040911B0150E0240F351F80911C0190E0A8
:1006100060911D0170E0762F6627F0911E016F0F2B
:10062000711D280F391F3195219531096217730704
:1006300009F0BECF10922A01E13419F41092310171
:100640002EC0E0932D01542F4427840F951F9093C3
:100650002F0180932E01EA53E63108F045C0F0E007
:10066000ED5CFC4F09942CC033C03CC012C03AC0B2
:1006700019C036C039C036C035C034C033C032C0EE
:1006800031C030C02FC030C02DC02CC02BC02AC0FC
:1006900029C085E080932C0181E080933001809116
:1006A0003001089580FF02C089E0F4CF81FF02C0CD
:1006B00084E0F0CF83709927892B89F38AE0EACF11
:1006C00080FF02C087E0E6CF81FFE9CF82E0E2CF82
:1006D00080FF02C088E0DECF81FFE1CF83E0DACF88
:1006E00086E0D8CF8BE0D6CF81E080932C011092AA
:1006F0002F0110922E0180933001A0CF8091310103
:10070000882369F22FB7F89480910801909109012C
:10071000A0910A01B0910B012FBF40910E015091A1
:100720000F016091100170911101841B950BA60BB4
:10073000B70B409112015091130160911401709117
:10074000150184179507A607B70708F4A8CF1092DC
:100750002A0110922C0110922F0110922E0181E09B
:1007600030CF80932301272F30E0709325016093D1
:1007700026014091220190912101490F5527551FD3
:10078000840F952F911D40912401840F911D820F9C
:10079000931F680F792F711D719561957109709381
:1007A000270160932801442351F08091310188236F
:1007B00031F060E070E0CB0197DEBFDEF6CF8091D4
:1007C0000C0190910D01DC01ED91FC910280F3810F
:1007D000E02D4AE050E060E271E009952FB7F8940F
:1007E0008091080190910901A0910A01B0910B013B
:1007F0002FBF80930E0190930F01A0931001B0932F
:1008000011018091240191E0811101C090E0909349
:100810003101811105C06AE070E080E090E064CEB3
:1008200008958F929F92AF92BF92CF92DF92EF92F4
:10083000FF926B017C018FB7F89480900801909033
:100840000901A0900A01B0900B018FBFC114D1041F
:10085000E104F10441F4C0901201D0901301E09042
:100860001401F090150169DE811119C09FB7F89449
:10087000409108015091090160910A0170910B01AA
:100880009FBF481959096A097B09C416D506E606AF
:10089000F70628F060E070E0CB0126DEE4CFFF90A1
:1008A000EF90DF90CF90BF90AF909F908F90089582
:1008B000BC018EE456DF60E070E0CB01B2DF811155
:1008C00003C08FEF9FEF08951092300180912C01AB
:1008D0008B30B9F780912E0190912F010895E0910E
:1008E000D100F091D2000994E091CF00F091D000B6
:1008F0000994E091D300F091D400099580E4F4CFFD
:10090000E091D300F091D400099580E0EDCFCF9332
:10091000C091640080E2C827C0936400F1DF8C2F8F
:10092000E3DFDDDF8091630094E08927809363003B
:10093000CF9108951F93CF93DF93C82F162FD62FF3
:10094000D77080916300D82BDBDF8D2FCDDF8C2F0C
:1009500082958F708061C8DF8C2F8F70C5DFBFDFFD
:10096000C093330110933201DF91CF911F9108950D
:100970000F931F93CF93DF93C0E010E86C2F80E0BC
:10098000D9DF80913301012F081B81F010933301CF
:10099000B0DFD0E080E0A8DF811104C0A0DFA9DFD4
:1009A00080E0A2DFDF5F0D13F5CF99DFCF5FC430AA
:1009B00029F760E080E0DF91CF911F910F91BACFCE
:1009C00080913201860F24E030E0261B3109821726
:1009D000130609F034F4809332016091320180E013
:1009E000A9CF84E0861BF7CFAF92BF92CF92DF9260
:1009F000EF92FF920F931F93CF93DF93E091DC0070
:100A0000F091DD00309741F06D3031F0D62FC38189
:100A10006A3079F46C2FD4DF81E090E0DF91CF91E0
:100A20001F910F91FF90EF90DF90CF90BF90AF900C
:100A30000895A28040913301EA2CF12C20E830E0A7
:100A40002E193F094217130619F014F06C2FB8DF66
:100A5000E091DC00F091DD0024818C2F90E0B70163
:100A60000AD7BC014D2F421B550BCA0104D78C017C
:100A7000BC2E3FDFC801282F201B2A15C0F46C01B3
:100A80005FEFC51AD50AE091DC00F091DD0001901E
:100A9000F081E02DE80FF91FD4918D2F25DF811112
:100AA00004C01DDF26DF8D2F1FDFC601E4CF0E0D32
:100AB0001F1D15DF80913301C13039F48A0D8093F9
:100AC0003301BA94B110D5CFA7CF609132016F5FD7
:100AD00091E09B1510F42EDFF4CF6C1B8A0DFBCF39
:100AE0000F931F93CF93DF938C01D0E0C0E0F80108
:100AF000EC0FFD1F6491662339F084E391E074DF0D
:100B0000892B11F02196F3CFCE01DF91CF911F9168
:100B10000F910895CF93C82FF3DE81E8E5DE8C2F87
:100B2000E3DECF91DCCE2091E0003091E100281788
:100B3000390781F49091DE008091DF00981751F021
:100B4000E091DE00F0E0E157FF4F8081082E000CBD
:100B5000990B08958FEF9FEF08952091E000309159
:100B6000E1002817390739F48FB7F8941092DF00A5
:100B70001092DE008FBF0895EF92FF920F931F93A4
:100B8000CF93DF93DC015C96ED90FC905D97E114D0
:100B9000F10479F481E090E013969C938E93129780
:100BA00090E080E0DF91CF911F910F91FF90EF9047
:100BB00008955196ED91FC91529750968C915097D3
:100BC000982F90950FB75E962C915E97122F12700A
:100BD00021FD6095F8942081112319F1282B2083A1
:100BE000E7012197F1F728E0462F50E0308160FFC0
:100BF0001AC0382B3083E7012197F1F7BA017595B8
:100C00006795215089F7112381F0808189238083A2
:100C10000FBF5C968D919C910197F1F781E090E078
:100C2000C1CF2923DCCF3923E5CF9081892BEFCFAA
:100C30002091E0003091E1002817390769F4809194
:100C4000DF002091DE0090E0805C9F4F821B9109C5
:100C500060E470E035D6089590E080E0089520913A
:100C6000E0003091E10028173907B9F49091DE00D7
:100C70008091DF00981789F0E091DE00F0E0E15705
:100C8000FF4F80812091DE0030E02F5F3F4F2F73B8
:100C900033272093DE0090E008958FEF9FEF0895B3
:100CA00085B7877E806185BF8AB780628ABF80B53D
:100CB0008F6080BDF89414BE88E981BD82E481BD57
:100CC000A89585B7806285BF7894889585B78F7D14
:100CD00085BF80B5807F80BD80B5816080BD08956F
:100CE00080B58E7F80BD86B1806986B98CE087B97A
:100CF00062E070E080E090E0F7DB85B7877E886097
:100D000085BF85B7806285BF889585B78F7D85BF94
:100D10003699FECF24B135B150E040E0379880B528
:100D2000816080BD64EB7BE281E190E0DCD5253021
:100D300080E138074105510520F024E030E140E032
:100D400050E020388CE038074105510520F420E8B8
:100D50003CE040E050E0CA01B90160587C408109A4
:100D6000910929E030E040E050E0BDD5822F0895A0
:100D7000CF93DF93EC01FE016491662329F084E3B5
:100D800091E032DE2196F7CFDF91CF9108958EB9B1
:100D90008BE295E09A95F1F700008DB9B29BFECFFA
:100DA00092E09A95F1F700C08DB9769BF2CF85E07D
:100DB0008A95F1F700008FB19FEF9FB9B89A089517
:100DC000C2988FB980EFE3DFB8988EEFE0DF8095AF
:100DD00081700895C098C29AB29BFECF82E08A9536
:100DE000F1F700C0C09A85E08A95F1F7000080E035
:100DF0000895C29AB29BFECF82E08A95F1F700C0B7
:100E0000C09882E08A95F1F700C0C298C09A779B9B
:100E10000BC0C29888E78FB980EFB9DFB8988EEF22
:100E2000B6DF80958170089580E00895C09AC29AD7
:100E3000BA9AB89A8FEF8FB98AE28DB980EF8EB9DE
:100E4000D8DF811106C06AE070E080E090E04CDB02
:100E5000F7CFC0CF8F929F92AF92BF92CF92DF9287
:100E6000EF92FF920F931F93CF93DF93CDB7DEB72F
:100E7000A1970FB6F894DEBF0FBECDBF182F8436F2
:100E800040F486E992E02CDE1A3018F484E992E00E
:100E900027DEC12ED12CF12CE12C19A28E010F5D81
:100EA0001F4F8AE0882E912CA12CB12CC701B601CE
:100EB000A501940118D5822F6AE0D4D49C2D981BEB
:100EC000892F9A304CF5805DF80182938F0169017A
:100ED0007A01C114D104E104F10441F7019000202A
:100EE000E9F73197AF01401B510BB80184E391E062
:100EF0006DDAA1960FB6F894DEBF0FBECDBFDF91BD
:100F0000CF911F910F91FF90EF90DF90CF90BF9006
:100F1000AF909F908F900895895CD6CF29DD60E0D7
:100F200080E008DD8EE293E023DF61E080E002DD17
:100F300088E892E0D5DD809160008CDF83E892E064
:100F4000CFDD8091050186DF62E080E0F3DC87E79A
:100F500092E0C6DD809162007DDF82E792E0C0DD35
:100F60008091040177DF63E080E0E4DC8AE592E0D1
:100F7000B7DD80918E006EDF88E592E0B1DD63E041
:100F800082E4D8DC80910301882321F087E692E097
:100F9000A7DDBDCC8FE592E0A3DD809161005ADF33
:100FA000F8CF9EDE80938E0081112AC082E3B2DDED
:100FB000DFDC60E080E0BEDC8AEA92E0D9DE62E05D
:100FC0008FE0B8DC88E992E0D3DEA1DC80910301F8
:100FD000811104C070E060E08EE0C3DB81DE8A3006
:100FE00010F45EDEFBCF8FE795DD7ADE80938E0016
:100FF00080910301811104C070E060E08DE0B1DBFD
:101000008DDF88E592E090930201809301010895BD
:10101000CF939091600080910501891750F481E091
:10102000809360008093620081E090E041DC8093D7
:1010300004019091620080910401891718F481E005
:10104000809362006091600080916200762F682F2B
:101050008FE087DB1092030161DFC091620081E0C5
:1010600090E0EAD3C81721F06C2F81E090E0ECD338
:10107000C091600082E090E0DFD3C81729F06C2FA8
:1010800082E090E0CF91E0C3CF9108951F920F923C
:101090000FB60F9211242F933F938F939F93AF938B
:1010A000BF938091080190910901A0910A01B0912C
:1010B0000B013091D50026E0230F2D3768F129E888
:1010C000230F0396A11DB11D2093D5008093080125
:1010D00090930901A0930A01B0930B018091D6006F
:1010E0009091D700A091D800B091D9000196A11D90
:1010F000B11D8093D6009093D700A093D800B093F1
:10110000D900BF91AF919F918F913F912F910F90F7
:101110000FBE0F901F9018950296A11DB11DD4CF40
:101120001F920F920FB60F9211242F933F934F935C
:101130005F936F937F938F939F93AF93BF93EF933F
:10114000FF93E091E000F091E100309749F0A6852F
:10115000B7858585968D91FF14C09C918923A1F454
:10116000FF91EF91BF91AF919F918F917F916F917F
:101170005F914F913F912F910F900FBE0F901F9055
:1011800018959C91892361F7A389B4899C918589DD
:10119000809589238C93868997890197F1F7608DD3
:1011A000718DA685B785558538E020E0CB01019784
:1011B000F1F7822F90E095958795282F4C91452344
:1011C00009F02068315091F7868D81FD209580913E
:1011D000DF0090E001968F7399273091DE00381779
:1011E00099F0A091DF00B0E0A157BF4F2C938093FE
:1011F000DF00828D938D0197F1F7A389B4898C91DB
:101200009589892B8C93ACCF868D8160868FF1CFA9
:1012100018951F920F920FB60F9211248F930FB64D
:10122000F894A89581B5886181BD11BC0FBE8F91DE
:101230000F900FBE0F901F90189590E0FC01E252A6
:10124000FD4F3491FC01E852FD4F2491FC01EE5218
:10125000FD4FE491EE23B9F0332329F03130A1F4AE
:101260008AB58F778ABDF0E0EE0FFF1FE453FD4F84
:10127000A591B4918FB7611118C0F894EC912095A5
:101280002E232C938FBF0895323019F48AB58F7DA9
:10129000E9CF333021F480B78F7D80BFE4CF343085
:1012A00011F78CB58F7D8CBDDECFF894EC912E2B91
:1012B000E8CF83E08ABD83BF789489B7826089BF15
:1012C00080E48CBD8FEF8DBD87EC80BF86B18877C1
:1012D000866886B9379A14BE88E981BD82E481BDEB
:1012E000A89586E086B9339A789480B5816080BDF0
:1012F00060E083E893D860E080E890D8E091DA007D
:10130000F091DB000995FCDAC4EED2E04CEEE42E5D
:1013100042E0F42EFE011491812FE6DA811104C01F
:10132000DEDAEEDA812FE0DA2196EC16FD0691F78F
:10133000D6DA87E890E09093DD008093DC008FE7B9
:10134000E9DB16DBDDDA8FEACFDAC9DA80916300F8
:1013500094E08927809363000BDB60E080E0EADAA9
:101360008EE293E005DD61E080E0E4DA82E293E082
:10137000B7DBCDDA1092FD001092FC001092FB005A
:101380001092FA001092F9001092F8008DEC90E0A3
:101390009093FF008093FE003091EE00363020F5F0
:1013A00045E550E05093F9004093F8004BEC50E0D5
:1013B0005093FB004093FA0040E950E05093FD0049
:1013C0004093FC002BB720622BBF45E350E05093C5
:1013D000F6004093F50021E001C0220F3A95EAF7AC
:1013E0002093F7000197F1F78091FC009091FD00A8
:1013F000892B49F1E091E000F091E10020E0E23E2C
:10140000F20709F1309739F0A389B4899C91858955
:10141000809589238C93809100018E7F80930001B9
:101420001092DF001092DE0082EE90E09093E100D7
:101430008093E000E091F500F091F60080819091BA
:10144000F700892B808364EF71E080E090E04CD856
:1014500082EE90E090930D0180930C0181E08093E7
:10146000240170E060E08CE07CD960ED77E080E002
:1014700090E0D7D968EC70E080E090E035D8109229
:10148000300180912C018430F1F08930E1F070DA84
:1014900060E080E04FDA8CE093E06ADC62E080E0BC
:1014A00049DA8AEF92E064DC63E080E043DA8CEEB4
:1014B00092E05EDC2CDA82E32DDB70E060E08AE013
:1014C00050D9EEDBFECF6DDD90E080E0B5D1873303
:1014D00009F0DAC081E090E0AFD18093620082E051
:1014E00090E0AAD18093600084EF91E0A0E0B0E0AA
:1014F0008093120190931301A0931401B0931501EE
:101500006091610070E086E02CD970E060E08FE4CB
:1015100028D960E070E0CB0184D98111BAC08FEF87
:10152000809305018091600090E0C2D9809304010E
:101530006FDD33E0E32E02E210E0FF24F394FDD7E9
:10154000882361F01092300180912C01853031F4B4
:10155000809162008F5F809362005ADD80B58E7F3C
:1015600080BD86B1806986B9E7B885B7877E886017
:1015700085BF28E090E080E035B7306235BF8895C0
:1015800035B73F7D35BF3699FECF44B155B1840F95
:10159000951F215089F7379820B5216020BD23E0A1
:1015A000969587952A95E1F72091060130910701DC
:1015B000A901485051098417950728F0285F3F4F2B
:1015C0002817390720F49093070180930601809132
:1015D000060190910701B8015FD1809161008617E3
:1015E00031F060936100772786E0BBD897DCD2D6D4
:1015F000EC01C83E83E0D807C8F5CE018350934084
:10160000879798F48091600090910501891708F000
:101610004AC08F5F809360008091600090E048D95D
:1016200080930401F0926200F3DCCE018551924078
:10163000879730F4809162008F5F80936200E8DCCE
:10164000C55BD240A79770F48091030191E08111AE
:1016500090E09093030170E060E0811127C08EE07C
:1016600080D85CDC97D6883E9340E0F380910101FE
:101670009091020101979093020180930101892BBF
:1016800009F48FDC0DDB5BCF67E390E080E0DCD01A
:101690002BCF1092300180912C018B3009F03FCF7D
:1016A00080912E013DCFF0926000B6CF8DE0D8CF73
:1016B000109237011092360183E790E09093350144
:1016C0008093340186E197E09093DB008093DA0009
:1016D00089EF96E09093D4008093D30080EE96E05B
:1016E0009093D0008093CF008AEE96E09093D20042
:1016F0008093D1001092E5001092E40088EE93E010
:10170000A0E0B0E08093E6009093E700A093E800AB
:10171000B093E9008BE790E09093E3008093E200C0
:101720001092F9001092F8001092FB001092FA004B
:101730001092FD001092FC001092FF001092FE002B
:10174000609100016E7F6D7F60930001669561700E
:1017500081E0682772DD61E081E060D6E9EDF2E0CA
:10176000E491E093F200E3EDF2E0E491F0E0EE0FBB
:10177000FF1FE453FD4F859194919093F400809363
:10178000F30060E084E04AD68091000181FD03C04F
:1017900061E084E052DD84E08093EE00ECEDF2E065
:1017A000E491E093EF00E6EDF2E0E491F0E0EE0F7B
:1017B000FF1FE054FD4F859194919093F100809329
:1017C000F00084EF91E0A0E0B0E0809312019093EC
:1017D0001301A0931401B09315018AE0E5E6F0E04F
:1017E000A0E2B1E001900D928A95E1F710922A01F2
:1017F00082E080932B011092300110923101089504
:101800008BE790E09093E3008093E2008091E0000A
:101810009091E100825E904071F4E091F500F091CA
:10182000F60090818091F700809589238083109243
:10183000E1001092E0000895E199FECF9FBB8EBBBE
:10184000E09A99278DB30895262FE199FECF1CBA0F
:101850009FBB8EBB2DBB0FB6F894E29AE19A0FBEE8
:1018600001960895002480FD060E660F11F08695FE
:10187000D1F7802D08950024552704C0080E591F64
:10188000880F991F009729F076956795B8F3710531
:10189000B9F7802D952F0895AA1BBB1B51E107C0F6
:1018A000AA1FBB1FA617B70710F0A61BB70B881FF0
:1018B000991F5A95A9F780959095BC01CD0108957F
:1018C00097FB072E16F4009406D077FD08D0E4DFCE
:1018D00007FC05D03EF4909581959F4F0895709533
:1018E00061957F4F0895A1E21A2EAA1BBB1BFD0133
:1018F0000DC0AA1FBB1FEE1FFF1FA217B307E407EF
:10190000F50720F0A21BB30BE40BF50B661F771F46
:10191000881F991F1A9469F7609570958095909526
:101920009B01AC01BD01CF010895EE0FFF1F059093
:10193000F491E02D099411E0C3EAD1E003C0FE0167
:0E194000F4DF2196C43AD107D1F7F894FFCF17
:10194E00011401B0407EFF06000100000000EF0010
:10195E00000000F404E60100000000BC05E60118DA
:0E196E00062F069305AD051E000601207E0023
:00000001FF
