:100000008FC1B3C133C7B1C1B0C1C2CCAEC1ADC1E4
:1000100094C4ABC1AAC1A9C17CC4A7C1A6C13FCA2F
:100020004CCA5ECA1FCA5CCA22CA55CA64CA58CA28
:1000300057CA56CA55CA54CA53CA52CA51CA5BCAC9
:100040004FCA4ECA4DCA4CCA4BCA506C65617365E3
:10005000207265636861726765202100212121207B
:100060004261747465727920656D70747920212104
:100070002100737461727420616761696E202100D0
:10008000436865636B2053442D4361726420616E45
:10009000640021212120202020204552524F52204F
:1000A00020202020212121002D2D2054696E79202F
:1000B0004D503320506C61796572202D2D00000069
:1000C000000000000000002F0000000007000700F3
:1000D00000147F147F1400242A7F2A12006264080F
:1000E000132300364955225000000503000000008C
:1000F0001C224100000041221C000014083E08148C
:100100000008083E0808000000A060000008080879
:100110000808000060600000002010080402003E93
:100120005149453E0000427F40000042615149462E
:10013000002141454B31001814127F10002745451E
:100140004539003C4A494930000171090503003630
:100150004949493600064949291E00003636000043
:100160000000563600000008142241000014141448
:100170001414000041221408000201510906003243
:100180004959513E007C1211127C007F4949493681
:10019000003E41414122007F4141221C007F4949EC
:1001A0004941007F09090901003E4149497A007F20
:1001B0000808087F0000417F4100002040413F01C6
:1001C000007F08142241007F40404040007F020C25
:1001D000027F007F0408107F003E4141413E007FC6
:1001E00009090906003E4151215E007F091929468F
:1001F0000046494949310001017F0101003F40406B
:10020000403F001F2040201F003F4038403F006318
:10021000140814630007087008070061514945433A
:1002200000007F414100000204081020000041410D
:100230007F000004020102040040404040400000F2
:1002400001020400002054545478007F484444388C
:1002500000384444442000384444487F0038545413
:10026000541800087E0901020018A4A4A47C007F91
:10027000080404780000447D4000004080847D0034
:10028000007F102844000000417F4000007C0418DB
:100290000478007C0804047800384444443800FCA6
:1002A000242424180018242418FC007C08040408C2
:1002B00000485454542000043F444020003C404037
:1002C000207C001C2040201C003C4030403C00446E
:1002D00028102844001CA0A0A07C004464544C4476
:1002E0000008364141000000007F0000000041414D
:1002F0003608000804081008C8A1A81FDA028D14E7
:1003000001020408102002020202020200000000A2
:1003100036000000000038000000000037009E0496
:1003200011241FBECFE5D2E0DEBFCDBF10E0A0E6B6
:10033000B0E0ECE7FCE102C005900D92A43DB107EE
:10034000D9F721E0A4EDB0E001C01D92A439B207B5
:10035000E1F711E0C0E9D1E003C02197FE0186DC9E
:10036000CF38D107D1F7FFDA87CC4ACE86E791E0C4
:1003700065C7682F86E791E03AD721E0892B09F419
:1003800020E0822F0895682F86E791E02AC786E74C
:1003900091E026C7CF93DF93EC01FE0164916623C1
:1003A00029F086E191E071DA2196F7CFDF91CF91C4
:1003B0000895CF93C82F8A3028F465E970E086E16C
:1003C00091E062DA4AE050E06C2F86E191E0CF9153
:1003D000C4CA6FE670E086E191E056DA80911301BD
:1003E000843628F465E970E086E191E04DDA809189
:1003F00013018A3028F465E970E086E191E044DA7F
:100400004AE050E06091130186E191E0A6DA64E7EA
:1004100070E086E191E038CA86E191E0C5D640E01F
:1004200060E086E191E0E4D588EA90E0B3DF41E066
:1004300060E086E191E0DCD566E770E086E191E07E
:1004400023DA80916100B5DF64E870E086E191E035
:100450001BDA80911401ADDF42E060E086E191E0BB
:10046000C7D569E870E086E191E00EDA809160001E
:10047000A0DF64E870E086E191E006DA8091150182
:1004800098DF43E060E086E191E0B2D5809112010F
:10049000882331F067E970E086E191E0F5D908C082
:1004A00061EA70E086E191E0EFD98091620081DF3E
:1004B00043E06EE486E191E09BD58BDF86E191E03D
:1004C00083C66091610070E084ED90E075D98093FF
:1004D0001501409160006091610084ED90E068D961
:1004E0001092120199CF90B59E7F90BD96B1906900
:1004F00096B987FD8058877087B985B7877E8860F1
:1005000085BF85B7806285BF889585B78F7D85BF9C
:100510003699FECF24B135B1379890B5916090BD32
:10052000C901089590B59E7F90BD96B1906996B926
:1005300087FD8058877087B985B7877E886085BFBB
:1005400028E080E090E035B7306235BF889535B758
:100550003F7D35BF3699FECF44B155B1840F951F0D
:10056000215089F7379820B5216020BD23E096956A
:1005700087952A95E1F7089580B58E7F80BD86B175
:10058000806986B98CE087B962E070E080E090E035
:100590007CDA85B7877E886085BF85B7806285BF36
:1005A000889585B78F7D85BF3699FECF24B135B14B
:1005B00040E050E0379880B5816080BD64EB7BE21D
:1005C00081E190E031DB20388CE0380741055105AE
:1005D00068F0DA01C901853020E19207A105B10573
:1005E00048F084E090E1A0E0B0E004C080E89CE046
:1005F000A0E0B0E0BC01CD0160587C4081099109C8
:1006000029E030E040E050E00FDB822F089514BE77
:1006100088E981BD82E481BDA895089585B7877E6C
:10062000806185BF8AB780628ABF80B58F6080BDD8
:10063000F894EDDF85B7806285BF7894889585B79B
:100640008F7D85BF80B5807F80BD80B5816080BD96
:10065000089592DF80931301811134C062E386E133
:1006600091E0BAD586E191E09FD540E060E086E177
:1006700091E0BED48CE590E08DDE42E06FE086E153
:1006800091E0B6D48AE490E085DE86E191E09CD5E5
:1006900080911201811103C084ED90E087D86CDF56
:1006A0008A3010F4BBDFFBCF6FE786E191E094D591
:1006B00063DF8093130180911201811103C084EDE7
:1006C00090E072D8A9DE88E592E0909311018093C2
:1006D00010010895CF93DF9384ED90E034D7882301
:1006E000C1F084ED90E091D6C82F84ED90E091D6D2
:1006F000C53079F44091600080911501481748F4A5
:100700004F5F409360006091610084ED90E050D8AD
:1007100083DE83E807DF20910E0130910F01A901EC
:10072000485051098417950728F0285F3F4F281734
:10073000390720F490930F0180930E0180910E01F0
:1007400090910F0162E270E048DA809162008617B2
:1007500031F06093620084ED90E0F1D75DDE80E8D7
:10076000C2DEEC01883E23E0920770F08091100118
:100770009091110101979093110180931001892BA1
:1007800009F041C066DF3FC083509340879778F4FB
:100790008091610090911401891710F48F5F01C05E
:1007A00081E08093610081E0809360008ADECE0169
:1007B00085519240879760F4809160009091150177
:1007C000891710F48F5F01C081E08093600079DEAB
:1007D000C55BD240A79788F48091120191E0811106
:1007E00090E090931201811104C084ED90E0DED777
:1007F00003C084ED90E0D8D70FDE80E874DE883E39
:100800009340D8F3B3CFDF91CF9108CF00DF86E0DC
:1008100086B9339A789480B5816080BD60E083E8C2
:1008200073D960E080E870D986E191E0D8D366EBB7
:1008300070E086E191E0D7D36FE786E191E0CCD418
:1008400086E191E0B1D486E191E0C8D486E191E0FF
:10085000ADD486E191E0A8D440E060E086E191E08B
:10086000C7D388EA90E096DD41E060E086E191E060
:10087000BFD36AEA70E086E191E006D886E191E0B4
:10088000A3D460E875E28AEF90E0AAD121E041E0CC
:100890006AEF70E084ED90E05AD7811127C086E1BD
:1008A00091E082D440E060E086E191E0A1D382E96A
:1008B00090E070DD42E060E086E191E099D380E86D
:1008C00090E068DD43E060E086E191E091D382E76B
:1008D00090E060DD86E191E077D462E386E191E02B
:1008E0007BD484ED90E02FD799DEFECFB2DE44EFCB
:1008F00051E060E070E084ED90E071D560916200BD
:1009000084ED90E01CD784ED90E06FD780931401C4
:10091000D8CD1F920F920FB60F9211248F930FB65E
:10092000F894A89581B5886181BD11BC0FBE8F91E7
:100930000F900FBE0F901F9018951895EF92FF9291
:100940000F931F93CF93DF9386EBE82E81E0F82E71
:1009500009EB11E023EC31E047EC51E06CE386E178
:1009600091E0F4D2EAEFF0E01382128288EE93E095
:10097000A0E0B0E084839583A683B78380EC90E009
:100980009183808384E0848781E08587138A128A3B
:10099000C4EDD0E084EF91E0A0E0B0E08E839F83CF
:1009A000A887B9878AE0E5E6F0E0A8EEB0E001901C
:1009B0000D928A95E1F71E8E82E08F8F1CA21DA2F8
:1009C000DF91CF911F910F91FF90EF90089580E0FC
:1009D00090E00895089520911E0180911F018217D3
:1009E00069F030E0F901E05EFE4F80812F5F3F4FFC
:1009F0002F73332720931E0190E008958FEF9FEF10
:100A00000895CF93DF93DC01809167019091680195
:100A1000892B71F11C968C911C97863018F0E0E0C0
:100A2000F0E002C0E5E3F0E05FB7F89410926801EF
:100A3000109267013097D9F01C968C911C978630E4
:100A400018F0C0E0D0E002C0CBE5D0E088818F7D17
:100A50008883408121E030E0C9011C960C9002C0DF
:100A6000880F991F0A94E2F78095842380835FBFE3
:100A7000DF91CF910895CF93DF93EC0180916701CF
:100A800090916801009709F0BCDF60E08C853CD84C
:100A90008C8590E0FC01E050FD4FE491E0931D0156
:100AA000FC01EA5FFC4FE491F0E0EE0FFF1FE45F12
:100AB000FC4F859194919F878E878D8590E0FC01F6
:100AC000E050FD4F249120931C01FC01EA5FFC4F94
:100AD000E491F0E0EE0FFF1FEE5EFC4FA591B491A4
:100AE000B0931B01A0931A01109719F0EC91E22B1F
:100AF000EC9361E08D8508D886E080BF8C858630D8
:100B000008F052C08FEF8093630110921E01109283
:100B10001F01E881F9810284F385E02DCE0109955A
:100B20008889998981152BE4920739F58DE08093A6
:100B300066018EE48093640186E0809365012FB79F
:100B4000F89435B381E090E00C8402C0880F991FBF
:100B50000A94E2F7832B85BB8C85863018F0E0E0A1
:100B6000F0E002C0EBE5F0E0808180628083D0930A
:100B70006801C09367012FBF17C081302BE4920733
:100B800058F480389542D9F68AE18093660187E26D
:100B9000809364018AE0D1CF82312AE7920731F253
:100BA0008115964961F6C2CFDF91CF9108956038E3
:100BB00025E2720721F06115EBE47E0781F4FC0168
:100BC000208931896217730751F0718B608B2091F6
:100BD0006701309168018217930709F44CCF08959B
:100BE000CF93DF93EC01E3DFCE01DF91CF9143CFD1
:100BF0001092630181E08093610110926001089579
:100C0000E0916701F09168013097C1F00288F389A3
:100C1000E02D309709F0099420911F0130E0A901DF
:100C20004F5F5F4F4F73552790911E01941731F01E
:100C3000F901E05EFE4F808340931F010895EF921B
:100C4000FF920F931F93CF93DF93FFB4E0901D01AA
:100C5000E822209163012F3F21F4E11050C0C8DF4A
:100C600049C0809165018F0D90916201891B60914F
:100C7000640170E090E0A0D7C92FC695C69580E0CA
:100C8000D82F49E0421B042F10E00C171D0708F075
:100C90004C2F542F520F509363018091600190911B
:100CA0006101292FE1100FC04150922F990F4F3F42
:100CB00019F0822B292FF8CF809360019093610166
:100CC0005830C0F01AC0415001C0220F4A95EAF7CF
:100CD00020936101822B80936001583058F090DF9F
:100CE00081E0E81621F00C171D0708F4B8CF8FEF4C
:100CF00080936301F092620102C082DFF4CFDF9142
:100D0000CF911F910F91FF90EF900895CF93DF93B4
:100D1000FC01909163019F3FA1F1A685B7852C91BD
:100D200080911D01822369F13FB529E0291BA22F83
:100D3000B0E080916501830F90916201891B609101
:100D4000640170E090E038D7492F4695469550E011
:100D5000A417B507B0F48091600190916101215012
:100D600018F0892B990FFBCFEF01809360019093CE
:100D700061012093630144DF81E02A893B89232BB1
:100D800009F080E0DF91CF9108959C0180911F01CF
:100D900090E040911E01841B9109805C9F4F60E4AC
:100DA00070E02FD7811104C0C901F894AFDF7894A7
:100DB00090E00895DF92EF92FF920F931F93CF93ED
:100DC000DF938C01F62E80911A0190911B01892BE3
:100DD00009F43FC0DFB6F894CFB58AE0E82E90E082
:100DE000EA94E0911A01F0911B0180911C01EE2020
:100DF00029F1992319F09081892B03C09081809566
:100E000089238083D09166018FB58C1B8D1788F460
:100E10000AB605FE0BC08AB780628ABFD8011E964B
:100E2000ED91FC911F9780810ADFEECFC8016EDF44
:100E3000EBCFCD0F9F2D9170F694D2CF9081892B5F
:100E40008083DFBE8FB58C1B8D1730F4C8015EDF49
:100E5000F9CF80E090E002C081E090E0DF91CF9197
:100E60001F910F91FF90EF90DF9008951F920F92C6
:100E70000FB60F9211242F933F934F935F936F936D
:100E80007F938F939F93AF93BF93EF93FF9386B31B
:100E9000D6DEFF91EF91BF91AF919F918F917F919E
:100EA0006F915F914F913F912F910F900FBE0F90D7
:100EB0001F901895E0916B01F0916C010994E091FD
:100EC0006901F0916A010994E0916D01F0916E0160
:100ED00080917501099580E4EDCFCF93C82FEADFAB
:100EE000811105C0ECDFF0DF8C2FCF91E3CFCF91E4
:100EF0000895E0916D01F0916E0180917501099561
:100F000080E0D8CFCF93C82FF4DF8C2FD3DFCF91E1
:100F1000D6CFCF93DF93D82FC62FEBDF8D2FCADF2D
:100F20008C2FC8DFDF91CF91CACF1F93CF93DF9370
:100F3000182FD62FC42FDDDF812FBCDF8D2FBADF16
:100F40008C2FB8DFDF91CF911F91B9CFEF92FF9235
:100F50000F931F93DC0113961C921E921297E0EDE3
:100F6000F0E0ED93FC936093750150937001409312
:100F70006F0130936E0120936D0110936C0100930B
:100F80006B01F0926A01E09269011F910F91FF904D
:100F9000EF900895EF92FF921F93CF93DF93162F58
:100FA0007A01E0916F01F09170010995A2DFE701EC
:100FB000E10EF11CCE15DF0561F0FE011491812FC9
:100FC00079DF811104C07BDF94DF812F73DF2196ED
:100FD000F1CFDF91CF911F91FF90EF9070CF48EF4D
:100FE00052E068E0D7CF7093740160937301089565
:100FF000CF93DF93C62FD42F462F4F7062956F701B
:1010000060619D2F977080916400892B8EDFC09363
:101010007201D0937101DF91CF910895FC019091FD
:101020007101960F492F50E024E030E0261B310972
:101030002417350714F494E0961B909371014091A6
:10104000710160E0CF01D4CF9F92AF92BF92CF9257
:10105000DF92EF92FF920F931F93CF93DF93E09174
:101060007301F0917401309709F461C06D3009F497
:101070005EC0162FEC01D3806A3019F46D2DCEDFDF
:1010800056C092802091720130E0E92CF12C80E86A
:1010900090E08E199F09821793071CF46D2DCE01E5
:1010A000BDDF212F30E0E0917301F09174014481A4
:1010B0008D2D90E0B70180D5BC01C901841B910939
:1010C0007BD58C01CD2C00DFF8018E2F801B89157C
:1010D00080F45F018FEFA81AB80AA0917301B09154
:1010E00074018D919C91E80FF91F8491F6DEF50152
:1010F000ECCF0E0D1F1DE3DE81E0D81206C08091FB
:101100007201890D809372010FC04091710181E0DD
:101110004F5F8C1518F46091720104C04D196091F5
:101120007201690DCE0164DFCA94C110CCCF81E099
:1011300090E0DF91CF911F910F91FF90EF90DF90A2
:10114000CF90BF90AF909F900895CF93DF93D62F0D
:10115000C42F80917201840F80937201B5DE8D2FB0
:10116000BCDEC150E1F7DF91CF91A9CE2091720191
:1011700040E8421BEACF0F931F93CF93DF938C017C
:10118000D62FC0E04C2F60E0C80132DF6D2FC801C0
:10119000EDDFCF5FC430B1F740E060E0C801DF9120
:1011A000CF911F910F9124CF60E0E5CF9091640023
:1011B00084E089278093640008959091630080E221
:1011C0008927809363009ECECF93DF93EC01F5DFF8
:1011D000CE01DF91CF91EACF81E89BCE8FEA92CE0C
:1011E0002FC010927701660F609378010895E09107
:1011F0007701E13150F4EF5FE0937701F0E0E858D8
:10120000FE4F608381E090E0089580E090E00895D3
:10121000CF93C62F609177016F5F88E791E0C4D0CC
:1012200010927701882329F0CC2329F0C0D08111B6
:1012300002C0CF9110C080E0CF91089561E0E8CF67
:10124000C09AC29ABA9AB89A8FEF8FB98AE28DB9CA
:1012500080EF8EB9089580918A0108958EB98BE24E
:101260009DE09A95F1F700008DB9B29BFECF9AE010
:101270009A95F1F700C08DB9769BF2CF8DE08A95F3
:10128000F1F700008FB19FEF9FB9B89A0895C29A05
:10129000C29BFECF8DE08A95F1F70000C0988AE0EE
:1012A0008A95F1F700C0C298C09A779905C083E08B
:1012B00080938A0180E0089581E00895AF92BF9203
:1012C000CF92DF92EF92FF920F931F93CF93DF9312
:1012D0008C01E62E80918A01816080938A01F80159
:1012E000908190FD03C0826080938A01D0DF8823C3
:1012F00009F44FC0FE2CE801BB24BA94AA24A3949D
:1013000080918A0183709E012F5F3F4F690188237E
:1013100061F1C29888818FB980EFA0DFB8988EEF15
:101320009DDF90918A0180FF0BC0892F817090FF13
:1013300005C081E080938A0180E02BC092E00EC05E
:10134000892F8570843069F4F80180818160808301
:10135000A0928A019CDF811116C09AE090938A01C5
:1013600018C09E7F90938A010CC0B89880EF76DFFA
:101370008883F1E0FF1202C0BFB801C01FB88EEF32
:101380006DDFE60102C0FE2CE801FA94F110B8CF3F
:1013900081E0DF91CF911F910F91FF90EF90DF904F
:1013A000CF90BF90AF90089510928A0187CFC098D8
:1013B000C29AB29BFECF8AE08A95F1F700C0C09A2C
:1013C0008DE08A95F1F700009EB1892F807295FD1E
:1013D00004C094E090938A01089581E00895FC018F
:1013E00046835783608771870895FB013196695F53
:1013F0007F4F80E090E02191820F911DE617F70763
:10140000D1F79195819591090895FC0114A280A1CD
:101410000895FC0114A282A193A10895DC011D96F8
:10142000EC911D97E13409F474C09196EC93919777
:101430001F968C911F9790E0982F882750962C919B
:101440005097820F911D93969C938E9392974E2F57
:1014500050E0FA01FA97E631F10508F04CC0E15F7F
:10146000FF4F09945E961C925E9785E03DC080FF19
:1014700005C05E961C925E9789E036C081FF05C06C
:101480005E961C925E9784E02FC083709927892B0B
:1014900009F441C05E961C925E978AE025C080FFE9
:1014A00005C05E961C925E9787E01EC081FF33C028
:1014B0005E961C925E9782E017C080FF05C05E9624
:1014C0001C925E9788E010C081FF25C05E961C923A
:1014D0005E9783E009C05E961C925E9786E004C02A
:1014E0005E961C925E978BE090968C93909781E02D
:1014F00094968C9308955E961C925E9781E09096E8
:101500008C93909793961C921E92929794968C939C
:10151000949795961C920895CF93DF93EC01BC01AC
:10152000665F7F4F62DF298930E0322F22274A89A8
:10153000240F311D41E02817390709F040E0842FBE
:10154000DF91CF9108950F931F93CF93DF93EC0119
:1015500088819981DC01ED91FC910480F581E02D79
:101560000995892BE1F160E070E0CB018ED21E8DF0
:1015700088819981DC01ED91FC910680F781E02D55
:10158000111106C009958A878E3711F78E8D24C0F8
:101590000995FE01E10FF11D82878E8D823069F081
:1015A000893079F08130C1F49B859F3FA9F01E8E70
:1015B00081E088A31BA21AA22EC09C85963061F000
:1015C000F6CF8B898F3E99F7CE01A6DF882379F37A
:1015D0001E8ECE0123DF23C08F5F8E8FB9CF8DA1EA
:1015E0008823E9F01FD20A811B812C813D81DC0117
:1015F000CB01801B910BA20BB30B0E811F812885A1
:10160000398580179107A207B30748F01E8E18A2EC
:101610001BA21AA281E08CA31DA280E001C08CA1B4
:10162000DF91CF911F910F910895CF93DF93EC013C
:10163000888D882351F08DA1882339F060E070E017
:10164000CB0123D2CE017FDFF6CF88819981DC01E7
:10165000ED91FC910280F381E02D4AE050E0BE0163
:101660006C5E7F4F0995DED16A837B838C839D837B
:10167000888D91E0811101C090E09DA3811107C088
:101680006AE070E080E090E0DF91CF91FEC1DF91F1
:10169000CF910895CF93DF93EC016F8B598F4A8FD1
:1016A000BC016C5E7F4FA1DE9B8F8C8FCE01DF91E2
:1016B000CF91BBCF40E050E0EDCF30E0F901F42B0B
:1016C000AF01E8CF8F929F92AF92BF92CF92DF92FD
:1016D000EF92FF921F93CF93DF93EC016A017B019E
:1016E000A1D14B015C01C114D104E104F10421F446
:1016F000CE80DF80E884F984CE0125DF182F8111A8
:1017000011C090D1DC01CB0188199909AA09BB0944
:10171000C816D906EA06FB0628F060E070E0CB01A7
:10172000B4D1EACF812FDF91CF911F91FF90EF903D
:10173000DF90CF90BF90AF909F908F900895462FED
:1017400050E066E0A7CF6AE0B5CF6CE0B3CF1F935F
:10175000CF93DF93EC01142F79836883442319F02E
:1017600081E0888F01C0188E222371F0CE01EDDF59
:1017700040ED57E060E070E0CE01A4DF68EC70E07F
:1017800080E090E082D102C084E088A31CA288A1FE
:10179000843029F0893019F081E0812701C081E08F
:1017A000DF91CF911F9108956DE084CF6EE082CFDD
:1017B000242F462F6FE081CFCF93DF93EC01AB0155
:1017C0006EE468DF40E050E0BA01CE017BDF8111BA
:1017D00003C08FEF9FEF06C01CA288A18B30C9F712
:1017E0008AA19BA1DF91CF910895CF93DF93EC0164
:1017F0006FE460DF40E050E0BA01CE0163DF8111A9
:1018000003C08FEF9FEF06C01CA288A18B30C9F7E1
:101810008AA19BA1DF91CF910895CF92DF92EF92A1
:10182000FF920F931F93CF93DF936C01EB017B012A
:10183000E40EF51E00E010E0CE15DF0561F06991C1
:10184000D601ED91FC910190F081E02DC601099542
:10185000080F191FF1CFC801DF91CF911F910F9190
:10186000FF90EF90DF90CF900895FB010190002052
:10187000E9F73197AF01461B570BDC01ED91FC9165
:101880000280F381E02D0994F0CFDC01ED91FC9111
:101890000190F081E02D09948F929F92AF92BF92B8
:1018A000CF92DF92EF92FF920F931F93CF93DF932C
:1018B000CDB7DEB7A1970FB6F894DEBF0FBECDBF90
:1018C0006C01142FE52FCB01022F19A2223008F44E
:1018D0000AE07E0121E2E20EF11C802E912CA12C67
:1018E000B12C612F7E2FA50194019ED1802F622FF4
:1018F0005AD1181B81E0E81AF1081A3014F4105D6F
:1019000001C0195CF7011083122FE32FCA01232BAA
:10191000242B252B31F7B701C601A7DFA1960FB6FF
:10192000F894DEBF0FBECDBFDF91CF911F910F9115
:10193000FF90EF90DF90CF90BF90AF909F908F90EF
:1019400008952115310541F4DC01ED91FC910190E0
:10195000F081E02D642F09949FCF9A01462F50E02B
:1019600060E070E0EECF81B781BFB9D04FD7B2D67B
:10197000FECF80B7807F80BF80B7806880BF8CB586
:1019800080648CBD8FEF8DBD80B7876080BF089568
:101990001F920F920FB60F9211242F933F938F93A4
:1019A0009F93AF93BF9380918C0190918D01A091F3
:1019B0008E01B0918F0130918B0126E0230F2D37DE
:1019C00030F029E8230F0396A11DB11D03C0029634
:1019D000A11DB11D20938B0180938C0190938D01EB
:1019E000A0938E01B0938F0180919001909191010D
:1019F000A0919201B09193010196A11DB11D809318
:101A0000900190939101A0939201B0939301BF91A3
:101A1000AF919F918F913F912F910F900FBE0F909B
:101A20001F9018952FB7F89460918C0170918D01DB
:101A300080918E0190918F012FBF08953FB7F89448
:101A40008091900190919101A0919201B0919301A8
:101A500022B708B601FE05C02F3F19F00196A11D5F
:101A6000B11D3FBFBA2FA92F982F8827820F911D34
:101A7000A11DB11DBC01CD0143E0660F771F881F7A
:101A8000991F4A95D1F708950895CF92DF92EF926A
:101A9000FF92CF93DF936B017C01D0DFEB01C11488
:101AA000D104E104F104A1F0EFDFC8DF6C1B7D0B72
:101AB000683E7340A0F3C114D104E104F10479F34A
:101AC00081E0C81AD108E108F108C851DC4FEDCF18
:101AD000DF91CF91FF90EF90DF90CF9008958AB57E
:101AE00082608ABD8AB581608ABD83B7887F836042
:101AF00083BF789489B7826089BF3BDF86B18877DE
:101B0000866886B9379A0895CF93DF9387FF11C00F
:101B10008F7741F0813041F0823041F0833041F0E5
:101B20008FEF07C085E005C082E003C084E001C0FC
:101B300083E090E0FC01E050FD4F2491FC01EA5F5E
:101B4000FC4F8491882361F190E0880F991FFC017C
:101B5000E85EFC4FC591D491FC01EE5EFC4FA5916F
:101B6000B491611109C09FB7F894888120958223B0
:101B70008883EC912E230BC0623061F49FB7F894F8
:101B80008881322F309583238883EC912E2B2C93E0
:101B90009FBF06C08FB7F894E8812E2B28838FBF94
:101BA000DF91CF910895002480FD060E660F11F09D
:101BB0008695D1F7802D08950024552704C0080E7E
:101BC000591F880F991F009729F076956795B8F3EC
:101BD0007105B9F7802D952F0895AA1BBB1B51E104
:101BE00007C0AA1FBB1FA617B70710F0A61BB70B8D
:101BF000881F991F5A95A9F780959095BC01CD0132
:101C0000089597FB072E16F4009406D077FD08D0B0
:101C1000E4DF07FC05D03EF4909581959F4F089531
:101C2000709561957F4F0895A1E21A2EAA1BBB1BE8
:101C3000FD010DC0AA1FBB1FEE1FFF1FA217B30798
:101C4000E407F50720F0A21BB30BE40BF50B661FAE
:101C5000771F881F991F1A9469F760957095809572
:101C600090959B01AC01BD01CF010895EE0FFF1FC0
:0C1C70000590F491E02D0994F894FFCF4A
:101C7C0001011440B07EFF06000100000000EF429D
:101C8C0061743A002500466F6C6465723A2020201E
:101C9C0020202000206F66200046696C653A2020C9
:101CAC00202020202020003C205061757365203EB0
:101CBC0000566F6C756D653A2000737461727469AF
:101CCC006E672E2E2E00BE000601207E0000000046
:101CDC00DA060D0CC506EB04E704EA04000000006C
:041CEC0024080D0CAF
:00000001FF
